{
  "contracts/Mastermind.sol": {
    "Mastermind": {
      "abi": [
        {
          "inputs": [],
          "stateMutability": "nonpayable",
          "type": "constructor"
        },
        {
          "anonymous": false,
          "inputs": [
            {
              "indexed": false,
              "internalType": "uint8",
              "name": "gameId",
              "type": "uint8"
            },
            {
              "indexed": false,
              "internalType": "address",
              "name": "accuser",
              "type": "address"
            },
            {
              "indexed": false,
              "internalType": "uint256",
              "name": "blockNumber",
              "type": "uint256"
            }
          ],
          "name": "AfkAccusation",
          "type": "event"
        },
        {
          "anonymous": false,
          "inputs": [
            {
              "indexed": false,
              "internalType": "uint8",
              "name": "gameId",
              "type": "uint8"
            },
            {
              "indexed": false,
              "internalType": "address",
              "name": "responder",
              "type": "address"
            }
          ],
          "name": "AfkResponse",
          "type": "event"
        },
        {
          "anonymous": false,
          "inputs": [],
          "name": "ChangeTurn",
          "type": "event"
        },
        {
          "anonymous": false,
          "inputs": [
            {
              "indexed": false,
              "internalType": "uint8",
              "name": "gameId",
              "type": "uint8"
            },
            {
              "indexed": false,
              "internalType": "uint8",
              "name": "guessNmr",
              "type": "uint8"
            },
            {
              "indexed": false,
              "internalType": "address",
              "name": "accuser",
              "type": "address"
            },
            {
              "indexed": false,
              "internalType": "bool",
              "name": "cheating",
              "type": "bool"
            }
          ],
          "name": "CheatAccusation",
          "type": "event"
        },
        {
          "anonymous": false,
          "inputs": [
            {
              "indexed": false,
              "internalType": "uint8",
              "name": "gameId",
              "type": "uint8"
            },
            {
              "indexed": false,
              "internalType": "address",
              "name": "player",
              "type": "address"
            },
            {
              "indexed": false,
              "internalType": "uint8[]",
              "name": "code",
              "type": "uint8[]"
            }
          ],
          "name": "CodeRevealed",
          "type": "event"
        },
        {
          "anonymous": false,
          "inputs": [
            {
              "indexed": false,
              "internalType": "uint8",
              "name": "gameId",
              "type": "uint8"
            },
            {
              "indexed": false,
              "internalType": "address",
              "name": "player",
              "type": "address"
            },
            {
              "indexed": false,
              "internalType": "bytes32",
              "name": "code",
              "type": "bytes32"
            }
          ],
          "name": "CodeSubmitted",
          "type": "event"
        },
        {
          "anonymous": false,
          "inputs": [
            {
              "indexed": false,
              "internalType": "uint8",
              "name": "gameId",
              "type": "uint8"
            },
            {
              "indexed": false,
              "internalType": "address",
              "name": "player",
              "type": "address"
            },
            {
              "indexed": false,
              "internalType": "uint8[]",
              "name": "feedback",
              "type": "uint8[]"
            },
            {
              "indexed": false,
              "internalType": "uint256",
              "name": "timestamp",
              "type": "uint256"
            }
          ],
          "name": "FeedbackSubmitted",
          "type": "event"
        },
        {
          "anonymous": false,
          "inputs": [],
          "name": "GameFinish",
          "type": "event"
        },
        {
          "anonymous": false,
          "inputs": [
            {
              "indexed": false,
              "internalType": "uint8",
              "name": "gameId",
              "type": "uint8"
            },
            {
              "indexed": false,
              "internalType": "address",
              "name": "joiner",
              "type": "address"
            },
            {
              "indexed": false,
              "internalType": "address",
              "name": "maker",
              "type": "address"
            },
            {
              "indexed": false,
              "internalType": "address",
              "name": "breaker",
              "type": "address"
            }
          ],
          "name": "GameJoined",
          "type": "event"
        },
        {
          "anonymous": false,
          "inputs": [
            {
              "indexed": false,
              "internalType": "uint8",
              "name": "gameId",
              "type": "uint8"
            },
            {
              "indexed": false,
              "internalType": "address",
              "name": "creator",
              "type": "address"
            }
          ],
          "name": "GameStart",
          "type": "event"
        },
        {
          "anonymous": false,
          "inputs": [
            {
              "indexed": false,
              "internalType": "uint8",
              "name": "gameId",
              "type": "uint8"
            },
            {
              "indexed": false,
              "internalType": "address",
              "name": "player",
              "type": "address"
            },
            {
              "indexed": false,
              "internalType": "uint8[]",
              "name": "guess",
              "type": "uint8[]"
            },
            {
              "indexed": false,
              "internalType": "uint256",
              "name": "timestamp",
              "type": "uint256"
            }
          ],
          "name": "GuessSubmitted",
          "type": "event"
        },
        {
          "inputs": [
            {
              "internalType": "uint8",
              "name": "gameId",
              "type": "uint8"
            }
          ],
          "name": "accuseAfk",
          "outputs": [],
          "stateMutability": "nonpayable",
          "type": "function"
        },
        {
          "inputs": [
            {
              "internalType": "uint8",
              "name": "gameId",
              "type": "uint8"
            },
            {
              "internalType": "uint8",
              "name": "guessNmr",
              "type": "uint8"
            }
          ],
          "name": "accuseCheating",
          "outputs": [],
          "stateMutability": "nonpayable",
          "type": "function"
        },
        {
          "inputs": [
            {
              "internalType": "bool",
              "name": "friendlyMatch",
              "type": "bool"
            },
            {
              "internalType": "address",
              "name": "friendAddr",
              "type": "address"
            }
          ],
          "name": "createGame",
          "outputs": [
            {
              "internalType": "uint8",
              "name": "",
              "type": "uint8"
            }
          ],
          "stateMutability": "payable",
          "type": "function"
        },
        {
          "inputs": [
            {
              "internalType": "uint8",
              "name": "gameId",
              "type": "uint8"
            }
          ],
          "name": "finishGame",
          "outputs": [],
          "stateMutability": "nonpayable",
          "type": "function"
        },
        {
          "inputs": [
            {
              "internalType": "uint256",
              "name": "",
              "type": "uint256"
            }
          ],
          "name": "games",
          "outputs": [
            {
              "internalType": "address",
              "name": "createUser",
              "type": "address"
            },
            {
              "internalType": "address",
              "name": "joinUser",
              "type": "address"
            },
            {
              "internalType": "uint8",
              "name": "createUserPoints",
              "type": "uint8"
            },
            {
              "internalType": "uint8",
              "name": "joinUserPoints",
              "type": "uint8"
            },
            {
              "internalType": "bool",
              "name": "friendlyMatch",
              "type": "bool"
            },
            {
              "internalType": "address",
              "name": "friendAddr",
              "type": "address"
            },
            {
              "components": [
                {
                  "internalType": "bool",
                  "name": "finished",
                  "type": "bool"
                },
                {
                  "internalType": "uint8[][]",
                  "name": "guess",
                  "type": "uint8[][]"
                },
                {
                  "internalType": "uint8[][]",
                  "name": "feedback",
                  "type": "uint8[][]"
                },
                {
                  "internalType": "address",
                  "name": "breaker",
                  "type": "address"
                },
                {
                  "internalType": "address",
                  "name": "maker",
                  "type": "address"
                },
                {
                  "internalType": "bytes32",
                  "name": "secretCodeHash",
                  "type": "bytes32"
                },
                {
                  "internalType": "uint8[]",
                  "name": "revealedCode",
                  "type": "uint8[]"
                },
                {
                  "internalType": "uint256",
                  "name": "timestamp",
                  "type": "uint256"
                }
              ],
              "internalType": "struct Mastermind.Turn",
              "name": "currentTurn",
              "type": "tuple"
            },
            {
              "internalType": "uint256",
              "name": "turnCounter",
              "type": "uint256"
            },
            {
              "internalType": "uint256",
              "name": "stake",
              "type": "uint256"
            },
            {
              "internalType": "address",
              "name": "whosPlaying",
              "type": "address"
            },
            {
              "internalType": "address",
              "name": "afkAccuser",
              "type": "address"
            },
            {
              "internalType": "uint256",
              "name": "afkTimestamp",
              "type": "uint256"
            },
            {
              "internalType": "bool",
              "name": "active",
              "type": "bool"
            }
          ],
          "stateMutability": "view",
          "type": "function"
        },
        {
          "inputs": [
            {
              "internalType": "uint8",
              "name": "gameId",
              "type": "uint8"
            }
          ],
          "name": "joinGame",
          "outputs": [],
          "stateMutability": "payable",
          "type": "function"
        },
        {
          "inputs": [],
          "name": "joinGameRandom",
          "outputs": [],
          "stateMutability": "payable",
          "type": "function"
        },
        {
          "inputs": [
            {
              "internalType": "uint8",
              "name": "gameId",
              "type": "uint8"
            },
            {
              "internalType": "uint8[]",
              "name": "revealedCode",
              "type": "uint8[]"
            }
          ],
          "name": "revealCode",
          "outputs": [],
          "stateMutability": "nonpayable",
          "type": "function"
        },
        {
          "inputs": [
            {
              "internalType": "uint8",
              "name": "gameId",
              "type": "uint8"
            },
            {
              "internalType": "bytes32",
              "name": "hashCode",
              "type": "bytes32"
            }
          ],
          "name": "submitCode",
          "outputs": [],
          "stateMutability": "nonpayable",
          "type": "function"
        },
        {
          "inputs": [
            {
              "internalType": "uint8",
              "name": "gameId",
              "type": "uint8"
            },
            {
              "internalType": "uint8[]",
              "name": "feedback",
              "type": "uint8[]"
            }
          ],
          "name": "submitFeedback",
          "outputs": [],
          "stateMutability": "nonpayable",
          "type": "function"
        },
        {
          "inputs": [
            {
              "internalType": "uint8",
              "name": "gameId",
              "type": "uint8"
            },
            {
              "internalType": "uint8[]",
              "name": "guess",
              "type": "uint8[]"
            }
          ],
          "name": "submitGuess",
          "outputs": [],
          "stateMutability": "nonpayable",
          "type": "function"
        },
        {
          "inputs": [
            {
              "internalType": "uint8",
              "name": "gameId",
              "type": "uint8"
            }
          ],
          "name": "verifyAfk",
          "outputs": [],
          "stateMutability": "nonpayable",
          "type": "function"
        }
      ],
      "evm": {
        "bytecode": {
          "linkReferences": {},
          "object": "608080604052346100205760ff19600154166001556135a990816100268239f35b600080fdfe6080604052600436101561001257600080fd5b60003560e01c8063117a5b90146125b057806311e967da1461242357806338b4e403146123005780634190ef7114611bcc57806344f1c6b5146119855780635fa3f435146117835780639221b6ed146115c55780639b12541914610f04578063a4a678b8146109e7578063aaabca8e146104dd578063d0ae92fb146102995763ead720cb146100a057600080fd5b346102945760203660031901126102945760066100bb612e99565b6100d060ff8060015416921680921015612f02565b8060005260006020526100f5604060002060018060a01b039384910154163314612fc9565b80600052600060205261011382600d60406000200154163314613021565b60005260006020526040600020906006600b830154036102575780600e8301541680331415908161024d575b5061023f575b60018201805460ff808260a01c169160a81c16908181116000146101b05750505060008083600c82959483955416910154908282156101a7575bf11561019b575b600080516020613554833981519152600080a1005b6040513d6000823e3d90fd5b506108fc61017f565b10156101e85760008093600c829483945416910154908282156101df575bf1610186576040513d6000823e3d90fd5b506108fc6101ce565b91906000808080600c85875416960195865460011c90828215610236575bf11561019b57600080939281939282935416905460011c908282156101df57f1610186576040513d6000823e3d90fd5b506108fc610206565b610248826133d8565b610145565b905015153861013f565b60405162461bcd60e51b815260206004820152601560248201527411d85b59481b9bdd08199a5b9a5cda1959081e595d605a1b6044820152606490fd5b600080fd5b602080600319360112610294576102ae612e99565b60ff600154166102c460ff831680921015612f02565b60005260008252604060002090600c820180548034036104a557601084019182549160ff83166104605785546001600160a01b0397908816331461041c57600187019081549060ff8260b01c166103b6575b506001600160a01b031916331790557f23baf8a79998232699a3badf1bbc9639968efa833c7e245673ea0f9ce0a51429966103b1949093909260019261035d90349061337a565b905560ff191617905561036f84613480565b6007840154600694909401546040805160ff90951685523360208601526001600160a01b03958316861690850152169290921660608201529081906080820190565b0390a1005b8960028a015416330315610316576084906040519062461bcd60e51b82526004820152602b60248201527f596f7520646f6e27742068617665207065726d697373696f6e20746f206a6f6960448201526a6e20746869732067616d6560a81b6064820152fd5b6064906040519062461bcd60e51b82526004820152601960248201527f43616e6e6f74206a6f696e20796f7572206f776e2067616d65000000000000006044820152fd5b60405162461bcd60e51b815260048101889052601b60248201527f546869732067616d6520697320616c72656164792061637469766500000000006044820152606490fd5b60405162461bcd60e51b815260048101869052601060248201526f0a6e8c2d6ca40daeae6e840dac2e8c6d60831b6044820152606490fd5b34610294576040366003190112610294576104f6612e99565b60243560ff811681036102945761051760ff6001541660ff84161115612f02565b600560ff821610156109ab5760ff8216600052600060205261054360ff60106040600020015416612f7d565b60ff8216600052600060205261056b6040600020600760018060a01b03910154163314612fc9565b60ff8216600052600060205261059260018060a01b03600d60406000200154163314613021565b60ff8216600052600060205260406000209160ff6003840154161561096e5760026105c1600a85015442613323565b11610915576105d382600485016130a1565b506105e183600586016130a1565b50906040516101408082018281106001600160401b038211176108ff57604052368237600986015460005b8181106108ba5750506000926000928054935b848110610716575050505050806000146106b9576000808080600c8801548181156106b0575b3390f11561019b5760ff60809360107ff864673cd26ca340bd9fb6cce531af8f4de7b152c44215f4791a3066cf1c7be1965b0182198154169055816040519416845216602083015233604083015215156060820152a1600080516020613554833981519152600080a1005b506108fc610645565b600080808060018060a01b03600789015416600c8901549082821561070d575bf11561019b5760ff60809360107ff864673cd26ca340bd9fb6cce531af8f4de7b152c44215f4791a3066cf1c7be196610677565b506108fc6106d9565b60ff6107228284613397565b90549060031b1c1660ff6107398360098d01613397565b90549060031b1c16146000146107b157600260ff6107578386613397565b90549060031b1c16036107a8575b8060ff61077460019385613397565b90549060031b1c1660ff61079d6107968261078f858b6133b7565b51166133c8565b92886133b7565b911690525b0161061f565b60019550610765565b60ff6107bd8284613397565b90549060031b1c1660ff6107d48360098d01613397565b90549060031b1c16036107ea575b6001906107a2565b9460ff610809816107fb8986613397565b90549060031b1c16866133b7565b511615158061089c575b156108505750600180955b60ff61082a8285613397565b90549060031b1c1660ff6108456107968261078f858b6133b7565b9116905290506107e2565b9460ff610861816107fb8486613397565b51161580610880575b610877575b60019061081e565b6001955061086f565b5060ff61088d8285613397565b90549060031b1c16151561086a565b50600160ff6108ab8886613397565b90549060031b1c161415610813565b8060ff6108cc60019360098c01613397565b90549060031b1c1660ff6108f56108ee826108e7858a6133b7565b5116613346565b92876133b7565b911690520161060c565b634e487b7160e01b600052604160045260246000fd5b60405162461bcd60e51b815260206004820152602b60248201527f5468652077696e646f7720746f20616363757365206f66206368656174696e6760448201526a081a185cc818db1bdcd95960aa1b6064820152608490fd5b60405162461bcd60e51b8152602060048201526015602482015274151d5c9b881b9bdd08199a5b9a5cda1959081e595d605a1b6044820152606490fd5b60405162461bcd60e51b815260206004820152601460248201527324b73b30b634b21033bab2b9b990373ab6b132b960611b6044820152606490fd5b34610294576109f536612ea9565b9091610a0b60ff6001541660ff83161115612f02565b610a1760048314612f40565b60ff81166000526000602052610a3760ff60106040600020015416612f7d565b60ff81166000526000602052610a5f6040600020600760018060a01b03910154163314612fc9565b60ff81166000526000602052610a8660018060a01b03600d60406000200154163314613021565b60ff81166000526000602052604060002060ff6003820154168015610ef7575b610aaf9061305d565b6006600b82015414610ed3575b60018060a01b03600e82015416803314159081610ec9575b50610ebb575b610ae883856009840161318f565b42600a820155606060005b848110610d095750604051610b2560208281610b188183019687815193849201613501565b81010380845201826127ed565b519020600882015403610cd5577fee3d1782077c4df59323adbb115334f526afc13204c227fb6d1178bc753973ca9360ff936103b1926000600482019081549160058314610ccc575b60078401805485549194916001600160a01b03908116911603610c885750610bca9189610b9c925416613524565b610bb060018501918a835460a01c16613524565b815460ff60a01b191660a09190911b60ff60a01b16179055565b805460068381018054600b8601546001600160a01b03918216949293929091169114610c6b576001600160601b0360a01b93838582541617905583825416179055600d8301918254161790557fa2cbbcd7a3af82cf36d1c29cc013e2be9a3c3a7c1f84ea8efeb60f5812f87a56600080a15b6003600187198284015416179101556040519485941684523360208501526060604085015260608401916132a8565b5050600d830180546001600160a01b031916909117905550610c3c565b610c9991509189610cc79316613524565b610cad60018501918a835460a81c16613524565b815460ff60a81b191660a89190911b60ff60a81b16179055565b610bca565b60039150610b6e565b60405162461bcd60e51b815260206004820152600c60248201526b496e76616c696420636f646560a01b6044820152606490fd5b93909460ff610d21610d1c878585613387565b613181565b169182946000957a184f03e93ff9f4daa797ed6e38ed64bf6a1f01000000000000000080861015610eac575b50600a906d04ee2d6d415b85acef810000000080821015610e9f575b50662386f26fc1000080821015610e92575b506305f5e10080821015610e85575b5061271080821015610e78575b50606480821015610e6b575b501015610e61575b600a60216001880197610dd6610dc08a613538565b99610dce6040519b8c6127ed565b808b52613538565b601f19013660208b01378801015b60001901946f181899199a1a9b1b9c1cb0b131b232b360811b8282061a865304938415610e1357600a90610de4565b509490959250610e5a6020600193986040519381610e3a8693518092868087019101613501565b8201610e4e82518093868085019101613501565b010380845201826127ed565b9101610af3565b9460010194610dab565b600291049701968a610da3565b600491049701968a610d97565b600891049701968a610d8a565b601091049701968a610d7b565b602091049701968a610d69565b6040975085049050600a610d4d565b610ec4816133d8565b610ada565b9050151585610ad4565b60108101805460ff19169055600080516020613554833981519152600080a1610abc565b5060058181015414610aa6565b3461029457604036600319011261029457610f1d612e99565b610f3160ff6001541660ff83161115612f02565b60ff81166000526000602052610f5160ff60106040600020015416612f7d565b60ff81166000526000602052610f796040600020600760018060a01b03910154163314612fc9565b60ff81166000526000602052610fa060018060a01b03600d60406000200154163314613021565b60ff81166000526000602052604060002090600a820154611574575b6006600b830154146115295760018060a01b03600e8301541680331415908161151f575b50611511575b600782015460068301546040516001600160a01b03928316949290911661100c826127b7565b600082526040519461101d866127b7565b600086526040519161102e836127b7565b600083526040519661103f8861279b565b600088526020880185905260408801526060870152608086015260243560a086015260c08501524260e085015260038201805460ff19169055805190600160401b82116108ff5760048301548260048501558083106114de575b5060200190600483016000526020600020916000905b8282106113ed57505050506040830151805190600160401b82116108ff5760058301548260058501558083106113ba575b5060200190600583016000526020600020916000905b8282106112c9575050505060608301516006820180546001600160a01b039283166001600160a01b031991821617909155608085015160078401805491909316911617905560a0830151600882015560c0830151805193906001600160401b0385116108ff5760209061116c866009860161310d565b01936009830160005260206000209060005b8160051c81106112895750601f198116810380611214575b7f8a014c84a6c004eee93a5bd142b593768e4abc3593fab1b7ee798e308835d77c6060878760e0880151600a8201556111d2600b820154613357565b600b820155600d60018060a01b036006830154169101906001600160601b0360a01b82541617905560ff604051911681523360208201526024356040820152a1005b9560009660005b8181106112595750505060051c01939093557f8a014c84a6c004eee93a5bd142b593768e4abc3593fab1b7ee798e308835d77c9260e0606086611196565b909197602061127f6001928460ff8d5116919060ff809160031b9316831b921b19161790565b990192910161121b565b6000805b602081106112a257508382015560010161117e565b885190989160019160209160ff60038d901b81811b199092169216901b179201980161128d565b80518051906001600160401b0382116108ff576020906112e9838861310d565b01908560005260206000209060005b8160051c811061137a5750601f19811692838203611327575b50505050600160208192019401910190926110f6565b6000936000905b808403821061134a5750505060051c015560016020818a611311565b90919460206113706001928560ff8a5116919060ff809160031b9316831b921b19161790565b960192019061132e565b6000805b602081106113935750838201556001016112f8565b855190959160019160209160ff60038a901b81811b199092169216901b179201950161137e565b600584016000526020600020908382015b81830181106113db5750506110e0565b806113e76001926130cf565b016113cb565b80518051906001600160401b0382116108ff5760209061140d838861310d565b01908560005260206000209060005b8160051c811061149e5750601f1981169283820361144b575b50505050600160208192019401910190926110af565b6000936000905b808403821061146e5750505060051c015560016020818a611435565b90919460206114946001928560ff8a5116919060ff809160031b9316831b921b19161790565b9601920190611452565b6000805b602081106114b757508382015560010161141c565b855190959160019160209160ff60038a901b81811b199092169216901b17920195016114a2565b600484016000526020600020908382015b81830181106114ff575050611099565b8061150b6001926130cf565b016114ef565b61151a826133d8565b610fe6565b9050151583610fe0565b6064604051600080516020613554833981519152600080a162461bcd60e51b815260206004820152601160248201527013585e081d1d5c9b9cc81c995858da1959607a1b6044820152fd5b60ff600383015416610fbc5760405162461bcd60e51b815260206004820152601e60248201527f50726576696f7573207475726e206e6f742066696e69736865642079657400006044820152606490fd5b34610294576020806003193601126102945760ff6115e1612e99565b169081600052600081526115ff60ff60106040600020015416612f7d565b60008281528082526040902080546001600160a01b0390811633148015611774575b1561172f57600d8201541633146116e057600f810190815461169057917f49ca67b925d3b4c5bd7c75e330902493ae8cacf254867b0961b6f448e3d78aaa9391600e60609401336001600160601b0360a01b8254161790554290556040519182523390820152426040820152a1005b60405162461bcd60e51b815260048101849052602260248201527f41464b2061636375736174696f6e20616c726561647920696e2070726f677265604482015261737360f01b6064820152608490fd5b60405162461bcd60e51b815260048101839052602160248201527f43616e6e6f7420616363757365207768656e206974277320796f7572207475726044820152603760f91b6064820152608490fd5b60405162461bcd60e51b815260048101849052601760248201527f4f6e6c7920706c61796572732063616e206163637573650000000000000000006044820152606490fd5b50806001830154163314611621565b346102945761179136612ea9565b9160ff92600193600760ff600154166117b060ff861680921015612f02565b6117bc60048514612f40565b8060005260006020526117d960ff60106040600020015416612f7d565b8060005260006020526117fe604060002060018060a01b039384910154163314612fc9565b80600052600060205261181c82600d60406000200154163314613021565b60005260006020526040600020906003820161183c60ff8254161561305d565b81600e8401541680331415908161197b575b5061196d575b6005830193611864868987613262565b600a84019442865560019160005b88811061191b575b50507f7f0f81ab631587113a25bbc8ca106ee2264bd96e26bda98356e28340bd602df499509181600d936103b19897969593911561190f575b50156118ef57600160ff198254161790556007830154169101906001600160601b0360a01b8254161790555b54906040519485943390866132f0565b506006830154169101906001600160601b0360a01b8254161790556118df565b6005915054148b6118b3565b60028261192d610d1c848f8e90613387565b160361193a578b01611872565b507f7f0f81ab631587113a25bbc8ca106ee2264bd96e26bda98356e28340bd602df49a50600092508190506103b161187a565b611976836133d8565b611854565b905015158961184e565b600036600319011261029457600060ff60019060ff82541690826119a88361280e565b926119b660405194856127ed565b8084526119c28161280e565b60209390601f1901368686013782805b611af8575b50505050508215611abe57611a3260ff917f23baf8a79998232699a3badf1bbc9639968efa833c7e245673ea0f9ce0a5142994604051602081019042825244604082015260408152611a28816127d2565b5190200690613366565b5116806000526000602052604060002091808301336001600160601b0360a01b825416179055600c8301611a6734825461337a565b9055601083019060ff19825416179055611a8082613480565b6007820154600692909201546040805160ff90931683523360208401526001600160a01b0393841690830152909116606082015280608081016103b1565b60405162461bcd60e51b81526020600482015260126024820152714e6f2067616d657320617661696c61626c6560701b6044820152606490fd5b81811690838211611bc65781611b3492600052600087526040600020846010820154161580611bb2575b80611ba5575b611b3a575b5050613346565b836119d2565b848782015460b01c1680918192611b8e575b5015611b6f5750611b66611b5f8b613357565b9a89613366565b525b8980611b2d565b15611b7b575b50611b68565b611b87611b5f8b613357565b5289611b75565b600201546001600160a01b0316331490508c611b4c565b50600c8101543414611b28565b5080546001600160a01b0316331415611b22565b506119d7565b604036600319011261029457600435801515809103610294576024356001600160a01b038116908181036102945734156122ca576001549160ff611c11818516613346565b16809360ff191617600155156000146122c5575060005b60405190611c35826127b7565b60008252604051611c45816127b7565b6000815260405190611c56826127b7565b6000825260405193611c678561279b565b60008552602085015260408401526000606084015260006080840152600060a084015260c0830152600060e0830152604051936101a085018581106001600160401b038211176108ff5760409081523386526000602080880182815288840183815260608a0184905260808a01959095526001600160a01b0395861660a0808b019190915260c08a019790975260e08901839052346101008a0152610120890183905261014089018390526101608901839052610180890183905296825281905220855181546001600160a01b031916908416178155935160018501805492516001600160a81b03199093169190931617921b60ff60a01b169190911781556060830151815460ff60a81b191660a89190911b60ff60a81b161781556080830151815460ff60b01b191690151560b01b60ff60b01b1617905560a08201516002820180546001600160a01b0319166001600160a01b039290921691909117905560c0820151805160038301805491151560ff1660ff1992909216919091179055916020830151805190600160401b82116108ff576004840154826004860155808310612292575b5060200190600484016000526020600020916000905b8282106121a157505050506040830151805190600160401b82116108ff57600584015482600586015580831061216e575b5060200190600584016000526020600020916000905b82821061207d575050505060608301516006830180546001600160a01b039283166001600160a01b031991821617909155608085015160078501805491909316911617905560a0830151600883015560c0830151805193906001600160401b0385116108ff57602090611ee1866009870161310d565b01936009840160005260206000209060005b8160051c811061203d5750601f198116808203611fe3575b611f9c8660106101808860e0890151600a85015560e0810151600b850155610100810151600c850155600d840160018060a01b03610120830151166001600160601b0360a01b825416179055600e840160018060a01b03610140830151166001600160601b0360a01b825416179055610160810151600f8501550151151591019060ff801983541691151516179055565b6001546040805160ff909216808352336020808501919091529290917f3235649627be07e9de041f17efa15eee442073c363ee0b78f6860a2edccd72b191a1604051908152f35b9560009660005b818403811061200d5750505060051c0193909355611f9c928160e0610180611f0b565b90919760206120336001928460ff8d5116919060ff809160031b9316831b921b19161790565b9901929101611fea565b6000805b60208110612056575083820155600101611ef3565b885190989160019160209160ff60038d901b81811b199092169216901b1792019801612041565b80518051906001600160401b0382116108ff5760209061209d838861310d565b01908560005260206000209060005b8160051c811061212e5750601f198116928382036120db575b5050505060016020819201940191019092611e6b565b6000936000905b80840382106120fe5750505060051c015560016020818a6120c5565b90919460206121246001928560ff8a5116919060ff809160031b9316831b921b19161790565b96019201906120e2565b6000805b602081106121475750838201556001016120ac565b855190959160019160209160ff60038a901b81811b199092169216901b1792019501612132565b600585016000526020600020908382015b818301811061218f575050611e55565b8061219b6001926130cf565b0161217f565b80518051906001600160401b0382116108ff576020906121c1838861310d565b01908560005260206000209060005b8160051c81106122525750601f198116928382036121ff575b5050505060016020819201940191019092611e24565b6000936000905b80840382106122225750505060051c015560016020818a6121e9565b90919460206122486001928560ff8a5116919060ff809160031b9316831b921b19161790565b9601920190612206565b6000805b6020811061226b5750838201556001016121d0565b855190959160019160209160ff60038a901b81811b199092169216901b1792019501612256565b600485016000526020600020908382015b81830181106122b3575050611e0e565b806122bf6001926130cf565b016122a3565b611c28565b60405162461bcd60e51b815260206004820152600e60248201526d14dd185ad9481c995c5d5a5c995960921b6044820152606490fd5b346102945760203660031901126102945760ff61231b612e99565b166000526000602052604060002060018060a01b03600e82015416908133036123de57600161234e600f83015442613323565b1115612385576000808093600c84601084960160ff19815416905501549082821561237c575bf11561019b57005b506108fc612374565b60405162461bcd60e51b815260206004820152602b60248201527f5468652077696e646f7720746f206163637573652041464b206973206e6f742060448201526a1e595d081bdc1c195b995960aa1b6064820152608490fd5b60405162461bcd60e51b815260206004820152601760248201527f4f6e6c7920616363757365722063616e207665726966790000000000000000006044820152606490fd5b346102945761243136612ea9565b90600660ff6001541661244a60ff861680921015612f02565b61245660048514612f40565b80600052600060205261247360ff60106040600020015416612f7d565b806000526000602052612498604060002060018060a01b039384910154163314612fc9565b8060005260006020526124b682600d60406000200154163314613021565b60005260006020526040600020936124d560ff6003870154161561305d565b600485019460058654101561257557600d8361252d87877fd43d417fee5f971fbe2d9fae7ab6ce107ea8c41a1c7fe584fcfc68bd486565f29a6103b198600e8801541680331415908161256b575b5061255d57613262565b42600a8401556007830154169101906001600160601b0360a01b82541617905560405193849342923390866132f0565b612566876133d8565b613262565b905015158d612523565b60405162461bcd60e51b815260206004820152601360248201527213585e0819dd595cdcd95cc81c995858da1959606a1b6044820152606490fd5b3461029457602036600319011261029457600435600052600060205260ff604060002060018060a01b0381541660018201549160018060a01b03600282015416906125fb608061279b565b84600382015416151560805261261360048201612db0565b60a05261262260058201612db0565b60c05260068101546001600160a01b0390811660e0526007820154166101005260088101546101205261265760098201612825565b60c060800152600a81015460e060800152600b81015492600c82015460018060a01b03600d840154169060018060a01b03600e8501541692886010600f8701549601541695604051998a996101a0938b5260018060a01b03811660208c0152818160a01c1660408c0152818160a81c1660608c015260b01c16151560808a015260a08901528060c089015260805115159088015260206080015161276861270d61010092836101c08c01526102a08b0190612e3c565b60c05161019f198b830381016101e08d01529161272991612e3c565b60e0516001600160a01b039081166102008d015261010051166102208c0152610120516102408c0152610140518b82039092016102608c015290612e05565b9660e0608001516102808a015260e089015287015261012086015261014085015261016084015215156101808301520390f35b61010081019081106001600160401b038211176108ff57604052565b602081019081106001600160401b038211176108ff57604052565b606081019081106001600160401b038211176108ff57604052565b90601f801991011681019081106001600160401b038211176108ff57604052565b6001600160401b0381116108ff5760051b60200190565b9060409160405180938254928383526020918284019160005282600020946000915b81601f840110612c17575061296295549184828210612c04575b828210612bee575b828210612bd8575b828210612bc2575b828210612bad575b828210612b97575b828210612b81575b828210612b6b575b828210612b55575b828210612b3f575b828210612b29575b828210612b13575b828210612afd575b828210612ae7575b828210612ad1575b828210612abb575b828210612aa5575b828210612a8f575b828210612a79575b828210612a63575b828210612a4d575b828210612a37575b828210612a21575b828210612a0b575b8282106129f5575b8282106129df575b8282106129c9575b8282106129b3575b82821061299d575b828210612987575b828210612971575b5010612964575b50905003836127ed565b565b60f81c8152018038612958565b6001919460ff8560f01c16815201930184612951565b6001919460ff8560e81c16815201930184612949565b6001919460ff8560e01c16815201930184612941565b6001919460ff8560d81c16815201930184612939565b6001919460ff8560d01c16815201930184612931565b6001919460ff8560c81c16815201930184612929565b6001919460ff8560c01c16815201930184612921565b6001919460ff8560b81c16815201930184612919565b6001919460ff8560b01c16815201930184612911565b6001919460ff8560a81c16815201930184612909565b6001919460ff8560a01c16815201930184612901565b6001919460ff8560981c168152019301846128f9565b6001919460ff8560901c168152019301846128f1565b6001919460ff8560881c168152019301846128e9565b6001919460ff8560801c168152019301846128e1565b6001919460ff8560781c168152019301846128d9565b6001919460ff8560701c168152019301846128d1565b6001919460ff8560681c168152019301846128c9565b6001919460ff8560601c168152019301846128c1565b6001919460ff8560581c168152019301846128b9565b6001919460ff8560501c168152019301846128b1565b6001919460ff8560481c168152019301846128a9565b6001919460ff8560401c168152019301846128a1565b6001919460ff8560381c16815201930184612899565b6001919460ff8560301c16815201930184612891565b6001919460ff8560281c16815201930184612889565b6001919460ff85831c16815201930184612881565b6001919460ff8560181c16815201930184612879565b6001919460ff8560101c16815201930184612871565b6001919460ff8560081c16815201930184612869565b6001919460ff8516815201930184612861565b939594509160016104008792875460ff8116825260ff8160081c168583015260ff8160101c168883015260ff818982826060828260181c168189015282828c82826080921c16818c0152828260a0958d87848460281c169101528d610100848460c09d8e838360301c1690860152828260381c1660e08601521c169101528d610120848460481c169101528d610140848460501c169101528d610160848460581c169101521c166101808c0152828260681c166101a08c0152828260701c166101c08c0152828260781c166101e08c01521c16610200890152828260881c16610220890152828260901c16610240890152828260981c166102608901521c16610280860152828260a81c166102a0860152828260b01c166102c0860152828260b81c166102e08601521c1661030083015260ff8160c81c1661032083015260ff8160d01c1661034083015260ff8160d81c1661036083015260ff8160e01c1661038083015260ff8160e81c166103a083015260ff8160f01c166103c083015260f81c6103e0820152019501910190949291879492612847565b908154612dbc8161280e565b92612dca60405194856127ed565b818452600090815260208082208186015b848410612de9575050505050565b6001838192612df785612825565b815201920193019290612ddb565b90815180825260208080930193019160005b828110612e25575050505090565b835160ff1685529381019392810192600101612e17565b90808251908181526020809101926020808460051b8301019501936000915b848310612e6b5750505050505090565b9091929394958480612e89600193601f198682030187528a51612e05565b9801930193019194939290612e5b565b6004359060ff8216820361029457565b60406003198201126102945760043560ff8116810361029457916024356001600160401b039283821161029457806023830112156102945781600401359384116102945760248460051b83010111610294576024019190565b15612f0957565b60405162461bcd60e51b815260206004820152600f60248201526e125b9d985b1a590819d85b59481a59608a1b6044820152606490fd5b15612f4757565b60405162461bcd60e51b815260206004820152600e60248201526d13195b99dd1a081a5b9d985b1a5960921b6044820152606490fd5b15612f8457565b60405162461bcd60e51b815260206004820152601760248201527f47616d65206e6f742061637469766520616e796d6f72650000000000000000006044820152606490fd5b15612fd057565b60405162461bcd60e51b8152602060048201526024808201527f456974686572206e6f7420796f75207475726e2c206f72206e6f74206120706c60448201526330bcb2b960e11b6064820152608490fd5b1561302857565b60405162461bcd60e51b815260206004820152600d60248201526c4e6f7420796f757220706c617960981b6044820152606490fd5b1561306457565b60405162461bcd60e51b8152602060048201526015602482015274151d5c9b88185b1c9958591e48199a5b9a5cda1959605a1b6044820152606490fd5b80548210156130b95760005260206000200190600090565b634e487b7160e01b600052603260045260246000fd5b80549060009060008155826130e357505050565b600052601f6020600020920160051c8201915b82811061310257505050565b8181556001016130f6565b600160401b82116108ff57805482825580831061312957505050565b600091600052601f60206000208180860160051c8201930160051c01931680613166575b505b82811061315b57505050565b81815560010161314f565b600019908183019182549160200360031b1c1690553861314d565b3560ff811681036102945790565b91906001600160401b0382116108ff576131a9828461310d565b90600092835260209060208420918160051c93855b85811061322e5750601f19831690920391826131dd575b505050505050565b9190855b8281106131f9575050505001553880808080806131d5565b90919295826132236001928461320e8b613181565b919060ff809160031b9316831b921b19161790565b9701939291016131e1565b86875b84808210613247575050858201556001016131be565b61325985938361320e60019598613181565b92019301613231565b9190918054600160401b8110156108ff57613282916001820181556130a1565b929092613292576129629261318f565b634e487b7160e01b600052600060045260246000fd5b9190808252602080920192916000805b8382106132c757505050505090565b9091929394853560ff81168091036132ec5781528301948301939291600101906132b8565b8280fd5b95949361331e9260ff6060959316885260018060a01b031660208801526080604088015260808701916132a8565b930152565b9190820391821161333057565b634e487b7160e01b600052601160045260246000fd5b60ff1660ff81146133305760010190565b60001981146133305760010190565b80518210156130b95760209160051b010190565b9190820180921161333057565b91908110156130b95760051b0190565b91909180548310156130b957600052601f60206000208360051c01921690565b90600a8110156130b95760051b0190565b60ff168015613330576000190190565b600f810160016133e9825442613323565b1161343c5760009055600e0180546001600160a01b03191690556001546040805160ff90921682523360208301527f308cc2b02fc1a88da358c20cb336f6a217d9763f90465497d610dfabc5383ed591a1565b5060108101805460ff19169055600e810154600c90910154600091829182918291906001600160a01b0316828215613477575bf11561019b57565b506108fc61346f565b60018060a01b03808254169182826001830154169060016040516020810190428252446040820152604081526134b5816127d2565b51902016156134f7575b5090600d9183600783019516936001600160601b0360a01b958587825416179055600683019116858254161790550191825416179055565b909350600d6134bf565b60005b8381106135145750506000910152565b8181015183820152602001613504565b9060ff8091169116019060ff821161333057565b6001600160401b0381116108ff57601f01601f19166020019056fe483044deeeee1932779c69368bbe4dceaba768d41d041cce9db42ab775469f86a2646970667358221220bac397b890eef276c42b7c23dc76cf35958e7b75b74787fc10dbef4175ef0b4064736f6c63430008180033",
          "opcodes": "PUSH1 0x80 DUP1 PUSH1 0x40 MSTORE CALLVALUE PUSH2 0x20 JUMPI PUSH1 0xFF NOT PUSH1 0x1 SLOAD AND PUSH1 0x1 SSTORE PUSH2 0x35A9 SWAP1 DUP2 PUSH2 0x26 DUP3 CODECOPY RETURN JUMPDEST PUSH1 0x0 DUP1 REVERT INVALID PUSH1 0x80 PUSH1 0x40 MSTORE PUSH1 0x4 CALLDATASIZE LT ISZERO PUSH2 0x12 JUMPI PUSH1 0x0 DUP1 REVERT JUMPDEST PUSH1 0x0 CALLDATALOAD PUSH1 0xE0 SHR DUP1 PUSH4 0x117A5B90 EQ PUSH2 0x25B0 JUMPI DUP1 PUSH4 0x11E967DA EQ PUSH2 0x2423 JUMPI DUP1 PUSH4 0x38B4E403 EQ PUSH2 0x2300 JUMPI DUP1 PUSH4 0x4190EF71 EQ PUSH2 0x1BCC JUMPI DUP1 PUSH4 0x44F1C6B5 EQ PUSH2 0x1985 JUMPI DUP1 PUSH4 0x5FA3F435 EQ PUSH2 0x1783 JUMPI DUP1 PUSH4 0x9221B6ED EQ PUSH2 0x15C5 JUMPI DUP1 PUSH4 0x9B125419 EQ PUSH2 0xF04 JUMPI DUP1 PUSH4 0xA4A678B8 EQ PUSH2 0x9E7 JUMPI DUP1 PUSH4 0xAAABCA8E EQ PUSH2 0x4DD JUMPI DUP1 PUSH4 0xD0AE92FB EQ PUSH2 0x299 JUMPI PUSH4 0xEAD720CB EQ PUSH2 0xA0 JUMPI PUSH1 0x0 DUP1 REVERT JUMPDEST CALLVALUE PUSH2 0x294 JUMPI PUSH1 0x20 CALLDATASIZE PUSH1 0x3 NOT ADD SLT PUSH2 0x294 JUMPI PUSH1 0x6 PUSH2 0xBB PUSH2 0x2E99 JUMP JUMPDEST PUSH2 0xD0 PUSH1 0xFF DUP1 PUSH1 0x1 SLOAD AND SWAP3 AND DUP1 SWAP3 LT ISZERO PUSH2 0x2F02 JUMP JUMPDEST DUP1 PUSH1 0x0 MSTORE PUSH1 0x0 PUSH1 0x20 MSTORE PUSH2 0xF5 PUSH1 0x40 PUSH1 0x0 KECCAK256 PUSH1 0x1 DUP1 PUSH1 0xA0 SHL SUB SWAP4 DUP5 SWAP2 ADD SLOAD AND CALLER EQ PUSH2 0x2FC9 JUMP JUMPDEST DUP1 PUSH1 0x0 MSTORE PUSH1 0x0 PUSH1 0x20 MSTORE PUSH2 0x113 DUP3 PUSH1 0xD PUSH1 0x40 PUSH1 0x0 KECCAK256 ADD SLOAD AND CALLER EQ PUSH2 0x3021 JUMP JUMPDEST PUSH1 0x0 MSTORE PUSH1 0x0 PUSH1 0x20 MSTORE PUSH1 0x40 PUSH1 0x0 KECCAK256 SWAP1 PUSH1 0x6 PUSH1 0xB DUP4 ADD SLOAD SUB PUSH2 0x257 JUMPI DUP1 PUSH1 0xE DUP4 ADD SLOAD AND DUP1 CALLER EQ ISZERO SWAP1 DUP2 PUSH2 0x24D JUMPI JUMPDEST POP PUSH2 0x23F JUMPI JUMPDEST PUSH1 0x1 DUP3 ADD DUP1 SLOAD PUSH1 0xFF DUP1 DUP3 PUSH1 0xA0 SHR AND SWAP2 PUSH1 0xA8 SHR AND SWAP1 DUP2 DUP2 GT PUSH1 0x0 EQ PUSH2 0x1B0 JUMPI POP POP POP PUSH1 0x0 DUP1 DUP4 PUSH1 0xC DUP3 SWAP6 SWAP5 DUP4 SWAP6 SLOAD AND SWAP2 ADD SLOAD SWAP1 DUP3 DUP3 ISZERO PUSH2 0x1A7 JUMPI JUMPDEST CALL ISZERO PUSH2 0x19B JUMPI JUMPDEST PUSH1 0x0 DUP1 MLOAD PUSH1 0x20 PUSH2 0x3554 DUP4 CODECOPY DUP2 MLOAD SWAP2 MSTORE PUSH1 0x0 DUP1 LOG1 STOP JUMPDEST PUSH1 0x40 MLOAD RETURNDATASIZE PUSH1 0x0 DUP3 RETURNDATACOPY RETURNDATASIZE SWAP1 REVERT JUMPDEST POP PUSH2 0x8FC PUSH2 0x17F JUMP JUMPDEST LT ISZERO PUSH2 0x1E8 JUMPI PUSH1 0x0 DUP1 SWAP4 PUSH1 0xC DUP3 SWAP5 DUP4 SWAP5 SLOAD AND SWAP2 ADD SLOAD SWAP1 DUP3 DUP3 ISZERO PUSH2 0x1DF JUMPI JUMPDEST CALL PUSH2 0x186 JUMPI PUSH1 0x40 MLOAD RETURNDATASIZE PUSH1 0x0 DUP3 RETURNDATACOPY RETURNDATASIZE SWAP1 REVERT JUMPDEST POP PUSH2 0x8FC PUSH2 0x1CE JUMP JUMPDEST SWAP2 SWAP1 PUSH1 0x0 DUP1 DUP1 DUP1 PUSH1 0xC DUP6 DUP8 SLOAD AND SWAP7 ADD SWAP6 DUP7 SLOAD PUSH1 0x1 SHR SWAP1 DUP3 DUP3 ISZERO PUSH2 0x236 JUMPI JUMPDEST CALL ISZERO PUSH2 0x19B JUMPI PUSH1 0x0 DUP1 SWAP4 SWAP3 DUP2 SWAP4 SWAP3 DUP3 SWAP4 SLOAD AND SWAP1 SLOAD PUSH1 0x1 SHR SWAP1 DUP3 DUP3 ISZERO PUSH2 0x1DF JUMPI CALL PUSH2 0x186 JUMPI PUSH1 0x40 MLOAD RETURNDATASIZE PUSH1 0x0 DUP3 RETURNDATACOPY RETURNDATASIZE SWAP1 REVERT JUMPDEST POP PUSH2 0x8FC PUSH2 0x206 JUMP JUMPDEST PUSH2 0x248 DUP3 PUSH2 0x33D8 JUMP JUMPDEST PUSH2 0x145 JUMP JUMPDEST SWAP1 POP ISZERO ISZERO CODESIZE PUSH2 0x13F JUMP JUMPDEST PUSH1 0x40 MLOAD PUSH3 0x461BCD PUSH1 0xE5 SHL DUP2 MSTORE PUSH1 0x20 PUSH1 0x4 DUP3 ADD MSTORE PUSH1 0x15 PUSH1 0x24 DUP3 ADD MSTORE PUSH21 0x11D85B59481B9BDD08199A5B9A5CDA1959081E595D PUSH1 0x5A SHL PUSH1 0x44 DUP3 ADD MSTORE PUSH1 0x64 SWAP1 REVERT JUMPDEST PUSH1 0x0 DUP1 REVERT JUMPDEST PUSH1 0x20 DUP1 PUSH1 0x3 NOT CALLDATASIZE ADD SLT PUSH2 0x294 JUMPI PUSH2 0x2AE PUSH2 0x2E99 JUMP JUMPDEST PUSH1 0xFF PUSH1 0x1 SLOAD AND PUSH2 0x2C4 PUSH1 0xFF DUP4 AND DUP1 SWAP3 LT ISZERO PUSH2 0x2F02 JUMP JUMPDEST PUSH1 0x0 MSTORE PUSH1 0x0 DUP3 MSTORE PUSH1 0x40 PUSH1 0x0 KECCAK256 SWAP1 PUSH1 0xC DUP3 ADD DUP1 SLOAD DUP1 CALLVALUE SUB PUSH2 0x4A5 JUMPI PUSH1 0x10 DUP5 ADD SWAP2 DUP3 SLOAD SWAP2 PUSH1 0xFF DUP4 AND PUSH2 0x460 JUMPI DUP6 SLOAD PUSH1 0x1 PUSH1 0x1 PUSH1 0xA0 SHL SUB SWAP8 SWAP1 DUP9 AND CALLER EQ PUSH2 0x41C JUMPI PUSH1 0x1 DUP8 ADD SWAP1 DUP2 SLOAD SWAP1 PUSH1 0xFF DUP3 PUSH1 0xB0 SHR AND PUSH2 0x3B6 JUMPI JUMPDEST POP PUSH1 0x1 PUSH1 0x1 PUSH1 0xA0 SHL SUB NOT AND CALLER OR SWAP1 SSTORE PUSH32 0x23BAF8A79998232699A3BADF1BBC9639968EFA833C7E245673EA0F9CE0A51429 SWAP7 PUSH2 0x3B1 SWAP5 SWAP1 SWAP4 SWAP1 SWAP3 PUSH1 0x1 SWAP3 PUSH2 0x35D SWAP1 CALLVALUE SWAP1 PUSH2 0x337A JUMP JUMPDEST SWAP1 SSTORE PUSH1 0xFF NOT AND OR SWAP1 SSTORE PUSH2 0x36F DUP5 PUSH2 0x3480 JUMP JUMPDEST PUSH1 0x7 DUP5 ADD SLOAD PUSH1 0x6 SWAP5 SWAP1 SWAP5 ADD SLOAD PUSH1 0x40 DUP1 MLOAD PUSH1 0xFF SWAP1 SWAP6 AND DUP6 MSTORE CALLER PUSH1 0x20 DUP7 ADD MSTORE PUSH1 0x1 PUSH1 0x1 PUSH1 0xA0 SHL SUB SWAP6 DUP4 AND DUP7 AND SWAP1 DUP6 ADD MSTORE AND SWAP3 SWAP1 SWAP3 AND PUSH1 0x60 DUP3 ADD MSTORE SWAP1 DUP2 SWAP1 PUSH1 0x80 DUP3 ADD SWAP1 JUMP JUMPDEST SUB SWAP1 LOG1 STOP JUMPDEST DUP10 PUSH1 0x2 DUP11 ADD SLOAD AND CALLER SUB ISZERO PUSH2 0x316 JUMPI PUSH1 0x84 SWAP1 PUSH1 0x40 MLOAD SWAP1 PUSH3 0x461BCD PUSH1 0xE5 SHL DUP3 MSTORE PUSH1 0x4 DUP3 ADD MSTORE PUSH1 0x2B PUSH1 0x24 DUP3 ADD MSTORE PUSH32 0x596F7520646F6E27742068617665207065726D697373696F6E20746F206A6F69 PUSH1 0x44 DUP3 ADD MSTORE PUSH11 0x6E20746869732067616D65 PUSH1 0xA8 SHL PUSH1 0x64 DUP3 ADD MSTORE REVERT JUMPDEST PUSH1 0x64 SWAP1 PUSH1 0x40 MLOAD SWAP1 PUSH3 0x461BCD PUSH1 0xE5 SHL DUP3 MSTORE PUSH1 0x4 DUP3 ADD MSTORE PUSH1 0x19 PUSH1 0x24 DUP3 ADD MSTORE PUSH32 0x43616E6E6F74206A6F696E20796F7572206F776E2067616D6500000000000000 PUSH1 0x44 DUP3 ADD MSTORE REVERT JUMPDEST PUSH1 0x40 MLOAD PUSH3 0x461BCD PUSH1 0xE5 SHL DUP2 MSTORE PUSH1 0x4 DUP2 ADD DUP9 SWAP1 MSTORE PUSH1 0x1B PUSH1 0x24 DUP3 ADD MSTORE PUSH32 0x546869732067616D6520697320616C7265616479206163746976650000000000 PUSH1 0x44 DUP3 ADD MSTORE PUSH1 0x64 SWAP1 REVERT JUMPDEST PUSH1 0x40 MLOAD PUSH3 0x461BCD PUSH1 0xE5 SHL DUP2 MSTORE PUSH1 0x4 DUP2 ADD DUP7 SWAP1 MSTORE PUSH1 0x10 PUSH1 0x24 DUP3 ADD MSTORE PUSH16 0xA6E8C2D6CA40DAEAE6E840DAC2E8C6D PUSH1 0x83 SHL PUSH1 0x44 DUP3 ADD MSTORE PUSH1 0x64 SWAP1 REVERT JUMPDEST CALLVALUE PUSH2 0x294 JUMPI PUSH1 0x40 CALLDATASIZE PUSH1 0x3 NOT ADD SLT PUSH2 0x294 JUMPI PUSH2 0x4F6 PUSH2 0x2E99 JUMP JUMPDEST PUSH1 0x24 CALLDATALOAD PUSH1 0xFF DUP2 AND DUP2 SUB PUSH2 0x294 JUMPI PUSH2 0x517 PUSH1 0xFF PUSH1 0x1 SLOAD AND PUSH1 0xFF DUP5 AND GT ISZERO PUSH2 0x2F02 JUMP JUMPDEST PUSH1 0x5 PUSH1 0xFF DUP3 AND LT ISZERO PUSH2 0x9AB JUMPI PUSH1 0xFF DUP3 AND PUSH1 0x0 MSTORE PUSH1 0x0 PUSH1 0x20 MSTORE PUSH2 0x543 PUSH1 0xFF PUSH1 0x10 PUSH1 0x40 PUSH1 0x0 KECCAK256 ADD SLOAD AND PUSH2 0x2F7D JUMP JUMPDEST PUSH1 0xFF DUP3 AND PUSH1 0x0 MSTORE PUSH1 0x0 PUSH1 0x20 MSTORE PUSH2 0x56B PUSH1 0x40 PUSH1 0x0 KECCAK256 PUSH1 0x7 PUSH1 0x1 DUP1 PUSH1 0xA0 SHL SUB SWAP2 ADD SLOAD AND CALLER EQ PUSH2 0x2FC9 JUMP JUMPDEST PUSH1 0xFF DUP3 AND PUSH1 0x0 MSTORE PUSH1 0x0 PUSH1 0x20 MSTORE PUSH2 0x592 PUSH1 0x1 DUP1 PUSH1 0xA0 SHL SUB PUSH1 0xD PUSH1 0x40 PUSH1 0x0 KECCAK256 ADD SLOAD AND CALLER EQ PUSH2 0x3021 JUMP JUMPDEST PUSH1 0xFF DUP3 AND PUSH1 0x0 MSTORE PUSH1 0x0 PUSH1 0x20 MSTORE PUSH1 0x40 PUSH1 0x0 KECCAK256 SWAP2 PUSH1 0xFF PUSH1 0x3 DUP5 ADD SLOAD AND ISZERO PUSH2 0x96E JUMPI PUSH1 0x2 PUSH2 0x5C1 PUSH1 0xA DUP6 ADD SLOAD TIMESTAMP PUSH2 0x3323 JUMP JUMPDEST GT PUSH2 0x915 JUMPI PUSH2 0x5D3 DUP3 PUSH1 0x4 DUP6 ADD PUSH2 0x30A1 JUMP JUMPDEST POP PUSH2 0x5E1 DUP4 PUSH1 0x5 DUP7 ADD PUSH2 0x30A1 JUMP JUMPDEST POP SWAP1 PUSH1 0x40 MLOAD PUSH2 0x140 DUP1 DUP3 ADD DUP3 DUP2 LT PUSH1 0x1 PUSH1 0x1 PUSH1 0x40 SHL SUB DUP3 GT OR PUSH2 0x8FF JUMPI PUSH1 0x40 MSTORE CALLDATASIZE DUP3 CALLDATACOPY PUSH1 0x9 DUP7 ADD SLOAD PUSH1 0x0 JUMPDEST DUP2 DUP2 LT PUSH2 0x8BA JUMPI POP POP PUSH1 0x0 SWAP3 PUSH1 0x0 SWAP3 DUP1 SLOAD SWAP4 JUMPDEST DUP5 DUP2 LT PUSH2 0x716 JUMPI POP POP POP POP POP DUP1 PUSH1 0x0 EQ PUSH2 0x6B9 JUMPI PUSH1 0x0 DUP1 DUP1 DUP1 PUSH1 0xC DUP9 ADD SLOAD DUP2 DUP2 ISZERO PUSH2 0x6B0 JUMPI JUMPDEST CALLER SWAP1 CALL ISZERO PUSH2 0x19B JUMPI PUSH1 0xFF PUSH1 0x80 SWAP4 PUSH1 0x10 PUSH32 0xF864673CD26CA340BD9FB6CCE531AF8F4DE7B152C44215F4791A3066CF1C7BE1 SWAP7 JUMPDEST ADD DUP3 NOT DUP2 SLOAD AND SWAP1 SSTORE DUP2 PUSH1 0x40 MLOAD SWAP5 AND DUP5 MSTORE AND PUSH1 0x20 DUP4 ADD MSTORE CALLER PUSH1 0x40 DUP4 ADD MSTORE ISZERO ISZERO PUSH1 0x60 DUP3 ADD MSTORE LOG1 PUSH1 0x0 DUP1 MLOAD PUSH1 0x20 PUSH2 0x3554 DUP4 CODECOPY DUP2 MLOAD SWAP2 MSTORE PUSH1 0x0 DUP1 LOG1 STOP JUMPDEST POP PUSH2 0x8FC PUSH2 0x645 JUMP JUMPDEST PUSH1 0x0 DUP1 DUP1 DUP1 PUSH1 0x1 DUP1 PUSH1 0xA0 SHL SUB PUSH1 0x7 DUP10 ADD SLOAD AND PUSH1 0xC DUP10 ADD SLOAD SWAP1 DUP3 DUP3 ISZERO PUSH2 0x70D JUMPI JUMPDEST CALL ISZERO PUSH2 0x19B JUMPI PUSH1 0xFF PUSH1 0x80 SWAP4 PUSH1 0x10 PUSH32 0xF864673CD26CA340BD9FB6CCE531AF8F4DE7B152C44215F4791A3066CF1C7BE1 SWAP7 PUSH2 0x677 JUMP JUMPDEST POP PUSH2 0x8FC PUSH2 0x6D9 JUMP JUMPDEST PUSH1 0xFF PUSH2 0x722 DUP3 DUP5 PUSH2 0x3397 JUMP JUMPDEST SWAP1 SLOAD SWAP1 PUSH1 0x3 SHL SHR AND PUSH1 0xFF PUSH2 0x739 DUP4 PUSH1 0x9 DUP14 ADD PUSH2 0x3397 JUMP JUMPDEST SWAP1 SLOAD SWAP1 PUSH1 0x3 SHL SHR AND EQ PUSH1 0x0 EQ PUSH2 0x7B1 JUMPI PUSH1 0x2 PUSH1 0xFF PUSH2 0x757 DUP4 DUP7 PUSH2 0x3397 JUMP JUMPDEST SWAP1 SLOAD SWAP1 PUSH1 0x3 SHL SHR AND SUB PUSH2 0x7A8 JUMPI JUMPDEST DUP1 PUSH1 0xFF PUSH2 0x774 PUSH1 0x1 SWAP4 DUP6 PUSH2 0x3397 JUMP JUMPDEST SWAP1 SLOAD SWAP1 PUSH1 0x3 SHL SHR AND PUSH1 0xFF PUSH2 0x79D PUSH2 0x796 DUP3 PUSH2 0x78F DUP6 DUP12 PUSH2 0x33B7 JUMP JUMPDEST MLOAD AND PUSH2 0x33C8 JUMP JUMPDEST SWAP3 DUP9 PUSH2 0x33B7 JUMP JUMPDEST SWAP2 AND SWAP1 MSTORE JUMPDEST ADD PUSH2 0x61F JUMP JUMPDEST PUSH1 0x1 SWAP6 POP PUSH2 0x765 JUMP JUMPDEST PUSH1 0xFF PUSH2 0x7BD DUP3 DUP5 PUSH2 0x3397 JUMP JUMPDEST SWAP1 SLOAD SWAP1 PUSH1 0x3 SHL SHR AND PUSH1 0xFF PUSH2 0x7D4 DUP4 PUSH1 0x9 DUP14 ADD PUSH2 0x3397 JUMP JUMPDEST SWAP1 SLOAD SWAP1 PUSH1 0x3 SHL SHR AND SUB PUSH2 0x7EA JUMPI JUMPDEST PUSH1 0x1 SWAP1 PUSH2 0x7A2 JUMP JUMPDEST SWAP5 PUSH1 0xFF PUSH2 0x809 DUP2 PUSH2 0x7FB DUP10 DUP7 PUSH2 0x3397 JUMP JUMPDEST SWAP1 SLOAD SWAP1 PUSH1 0x3 SHL SHR AND DUP7 PUSH2 0x33B7 JUMP JUMPDEST MLOAD AND ISZERO ISZERO DUP1 PUSH2 0x89C JUMPI JUMPDEST ISZERO PUSH2 0x850 JUMPI POP PUSH1 0x1 DUP1 SWAP6 JUMPDEST PUSH1 0xFF PUSH2 0x82A DUP3 DUP6 PUSH2 0x3397 JUMP JUMPDEST SWAP1 SLOAD SWAP1 PUSH1 0x3 SHL SHR AND PUSH1 0xFF PUSH2 0x845 PUSH2 0x796 DUP3 PUSH2 0x78F DUP6 DUP12 PUSH2 0x33B7 JUMP JUMPDEST SWAP2 AND SWAP1 MSTORE SWAP1 POP PUSH2 0x7E2 JUMP JUMPDEST SWAP5 PUSH1 0xFF PUSH2 0x861 DUP2 PUSH2 0x7FB DUP5 DUP7 PUSH2 0x3397 JUMP JUMPDEST MLOAD AND ISZERO DUP1 PUSH2 0x880 JUMPI JUMPDEST PUSH2 0x877 JUMPI JUMPDEST PUSH1 0x1 SWAP1 PUSH2 0x81E JUMP JUMPDEST PUSH1 0x1 SWAP6 POP PUSH2 0x86F JUMP JUMPDEST POP PUSH1 0xFF PUSH2 0x88D DUP3 DUP6 PUSH2 0x3397 JUMP JUMPDEST SWAP1 SLOAD SWAP1 PUSH1 0x3 SHL SHR AND ISZERO ISZERO PUSH2 0x86A JUMP JUMPDEST POP PUSH1 0x1 PUSH1 0xFF PUSH2 0x8AB DUP9 DUP7 PUSH2 0x3397 JUMP JUMPDEST SWAP1 SLOAD SWAP1 PUSH1 0x3 SHL SHR AND EQ ISZERO PUSH2 0x813 JUMP JUMPDEST DUP1 PUSH1 0xFF PUSH2 0x8CC PUSH1 0x1 SWAP4 PUSH1 0x9 DUP13 ADD PUSH2 0x3397 JUMP JUMPDEST SWAP1 SLOAD SWAP1 PUSH1 0x3 SHL SHR AND PUSH1 0xFF PUSH2 0x8F5 PUSH2 0x8EE DUP3 PUSH2 0x8E7 DUP6 DUP11 PUSH2 0x33B7 JUMP JUMPDEST MLOAD AND PUSH2 0x3346 JUMP JUMPDEST SWAP3 DUP8 PUSH2 0x33B7 JUMP JUMPDEST SWAP2 AND SWAP1 MSTORE ADD PUSH2 0x60C JUMP JUMPDEST PUSH4 0x4E487B71 PUSH1 0xE0 SHL PUSH1 0x0 MSTORE PUSH1 0x41 PUSH1 0x4 MSTORE PUSH1 0x24 PUSH1 0x0 REVERT JUMPDEST PUSH1 0x40 MLOAD PUSH3 0x461BCD PUSH1 0xE5 SHL DUP2 MSTORE PUSH1 0x20 PUSH1 0x4 DUP3 ADD MSTORE PUSH1 0x2B PUSH1 0x24 DUP3 ADD MSTORE PUSH32 0x5468652077696E646F7720746F20616363757365206F66206368656174696E67 PUSH1 0x44 DUP3 ADD MSTORE PUSH11 0x81A185CC818DB1BDCD959 PUSH1 0xAA SHL PUSH1 0x64 DUP3 ADD MSTORE PUSH1 0x84 SWAP1 REVERT JUMPDEST PUSH1 0x40 MLOAD PUSH3 0x461BCD PUSH1 0xE5 SHL DUP2 MSTORE PUSH1 0x20 PUSH1 0x4 DUP3 ADD MSTORE PUSH1 0x15 PUSH1 0x24 DUP3 ADD MSTORE PUSH21 0x151D5C9B881B9BDD08199A5B9A5CDA1959081E595D PUSH1 0x5A SHL PUSH1 0x44 DUP3 ADD MSTORE PUSH1 0x64 SWAP1 REVERT JUMPDEST PUSH1 0x40 MLOAD PUSH3 0x461BCD PUSH1 0xE5 SHL DUP2 MSTORE PUSH1 0x20 PUSH1 0x4 DUP3 ADD MSTORE PUSH1 0x14 PUSH1 0x24 DUP3 ADD MSTORE PUSH20 0x24B73B30B634B21033BAB2B9B990373AB6B132B9 PUSH1 0x61 SHL PUSH1 0x44 DUP3 ADD MSTORE PUSH1 0x64 SWAP1 REVERT JUMPDEST CALLVALUE PUSH2 0x294 JUMPI PUSH2 0x9F5 CALLDATASIZE PUSH2 0x2EA9 JUMP JUMPDEST SWAP1 SWAP2 PUSH2 0xA0B PUSH1 0xFF PUSH1 0x1 SLOAD AND PUSH1 0xFF DUP4 AND GT ISZERO PUSH2 0x2F02 JUMP JUMPDEST PUSH2 0xA17 PUSH1 0x4 DUP4 EQ PUSH2 0x2F40 JUMP JUMPDEST PUSH1 0xFF DUP2 AND PUSH1 0x0 MSTORE PUSH1 0x0 PUSH1 0x20 MSTORE PUSH2 0xA37 PUSH1 0xFF PUSH1 0x10 PUSH1 0x40 PUSH1 0x0 KECCAK256 ADD SLOAD AND PUSH2 0x2F7D JUMP JUMPDEST PUSH1 0xFF DUP2 AND PUSH1 0x0 MSTORE PUSH1 0x0 PUSH1 0x20 MSTORE PUSH2 0xA5F PUSH1 0x40 PUSH1 0x0 KECCAK256 PUSH1 0x7 PUSH1 0x1 DUP1 PUSH1 0xA0 SHL SUB SWAP2 ADD SLOAD AND CALLER EQ PUSH2 0x2FC9 JUMP JUMPDEST PUSH1 0xFF DUP2 AND PUSH1 0x0 MSTORE PUSH1 0x0 PUSH1 0x20 MSTORE PUSH2 0xA86 PUSH1 0x1 DUP1 PUSH1 0xA0 SHL SUB PUSH1 0xD PUSH1 0x40 PUSH1 0x0 KECCAK256 ADD SLOAD AND CALLER EQ PUSH2 0x3021 JUMP JUMPDEST PUSH1 0xFF DUP2 AND PUSH1 0x0 MSTORE PUSH1 0x0 PUSH1 0x20 MSTORE PUSH1 0x40 PUSH1 0x0 KECCAK256 PUSH1 0xFF PUSH1 0x3 DUP3 ADD SLOAD AND DUP1 ISZERO PUSH2 0xEF7 JUMPI JUMPDEST PUSH2 0xAAF SWAP1 PUSH2 0x305D JUMP JUMPDEST PUSH1 0x6 PUSH1 0xB DUP3 ADD SLOAD EQ PUSH2 0xED3 JUMPI JUMPDEST PUSH1 0x1 DUP1 PUSH1 0xA0 SHL SUB PUSH1 0xE DUP3 ADD SLOAD AND DUP1 CALLER EQ ISZERO SWAP1 DUP2 PUSH2 0xEC9 JUMPI JUMPDEST POP PUSH2 0xEBB JUMPI JUMPDEST PUSH2 0xAE8 DUP4 DUP6 PUSH1 0x9 DUP5 ADD PUSH2 0x318F JUMP JUMPDEST TIMESTAMP PUSH1 0xA DUP3 ADD SSTORE PUSH1 0x60 PUSH1 0x0 JUMPDEST DUP5 DUP2 LT PUSH2 0xD09 JUMPI POP PUSH1 0x40 MLOAD PUSH2 0xB25 PUSH1 0x20 DUP3 DUP2 PUSH2 0xB18 DUP2 DUP4 ADD SWAP7 DUP8 DUP2 MLOAD SWAP4 DUP5 SWAP3 ADD PUSH2 0x3501 JUMP JUMPDEST DUP2 ADD SUB DUP1 DUP5 MSTORE ADD DUP3 PUSH2 0x27ED JUMP JUMPDEST MLOAD SWAP1 KECCAK256 PUSH1 0x8 DUP3 ADD SLOAD SUB PUSH2 0xCD5 JUMPI PUSH32 0xEE3D1782077C4DF59323ADBB115334F526AFC13204C227FB6D1178BC753973CA SWAP4 PUSH1 0xFF SWAP4 PUSH2 0x3B1 SWAP3 PUSH1 0x0 PUSH1 0x4 DUP3 ADD SWAP1 DUP2 SLOAD SWAP2 PUSH1 0x5 DUP4 EQ PUSH2 0xCCC JUMPI JUMPDEST PUSH1 0x7 DUP5 ADD DUP1 SLOAD DUP6 SLOAD SWAP2 SWAP5 SWAP2 PUSH1 0x1 PUSH1 0x1 PUSH1 0xA0 SHL SUB SWAP1 DUP2 AND SWAP2 AND SUB PUSH2 0xC88 JUMPI POP PUSH2 0xBCA SWAP2 DUP10 PUSH2 0xB9C SWAP3 SLOAD AND PUSH2 0x3524 JUMP JUMPDEST PUSH2 0xBB0 PUSH1 0x1 DUP6 ADD SWAP2 DUP11 DUP4 SLOAD PUSH1 0xA0 SHR AND PUSH2 0x3524 JUMP JUMPDEST DUP2 SLOAD PUSH1 0xFF PUSH1 0xA0 SHL NOT AND PUSH1 0xA0 SWAP2 SWAP1 SWAP2 SHL PUSH1 0xFF PUSH1 0xA0 SHL AND OR SWAP1 SSTORE JUMP JUMPDEST DUP1 SLOAD PUSH1 0x6 DUP4 DUP2 ADD DUP1 SLOAD PUSH1 0xB DUP7 ADD SLOAD PUSH1 0x1 PUSH1 0x1 PUSH1 0xA0 SHL SUB SWAP2 DUP3 AND SWAP5 SWAP3 SWAP4 SWAP3 SWAP1 SWAP2 AND SWAP2 EQ PUSH2 0xC6B JUMPI PUSH1 0x1 PUSH1 0x1 PUSH1 0x60 SHL SUB PUSH1 0xA0 SHL SWAP4 DUP4 DUP6 DUP3 SLOAD AND OR SWAP1 SSTORE DUP4 DUP3 SLOAD AND OR SWAP1 SSTORE PUSH1 0xD DUP4 ADD SWAP2 DUP3 SLOAD AND OR SWAP1 SSTORE PUSH32 0xA2CBBCD7A3AF82CF36D1C29CC013E2BE9A3C3A7C1F84EA8EFEB60F5812F87A56 PUSH1 0x0 DUP1 LOG1 JUMPDEST PUSH1 0x3 PUSH1 0x1 DUP8 NOT DUP3 DUP5 ADD SLOAD AND OR SWAP2 ADD SSTORE PUSH1 0x40 MLOAD SWAP5 DUP6 SWAP5 AND DUP5 MSTORE CALLER PUSH1 0x20 DUP6 ADD MSTORE PUSH1 0x60 PUSH1 0x40 DUP6 ADD MSTORE PUSH1 0x60 DUP5 ADD SWAP2 PUSH2 0x32A8 JUMP JUMPDEST POP POP PUSH1 0xD DUP4 ADD DUP1 SLOAD PUSH1 0x1 PUSH1 0x1 PUSH1 0xA0 SHL SUB NOT AND SWAP1 SWAP2 OR SWAP1 SSTORE POP PUSH2 0xC3C JUMP JUMPDEST PUSH2 0xC99 SWAP2 POP SWAP2 DUP10 PUSH2 0xCC7 SWAP4 AND PUSH2 0x3524 JUMP JUMPDEST PUSH2 0xCAD PUSH1 0x1 DUP6 ADD SWAP2 DUP11 DUP4 SLOAD PUSH1 0xA8 SHR AND PUSH2 0x3524 JUMP JUMPDEST DUP2 SLOAD PUSH1 0xFF PUSH1 0xA8 SHL NOT AND PUSH1 0xA8 SWAP2 SWAP1 SWAP2 SHL PUSH1 0xFF PUSH1 0xA8 SHL AND OR SWAP1 SSTORE JUMP JUMPDEST PUSH2 0xBCA JUMP JUMPDEST PUSH1 0x3 SWAP2 POP PUSH2 0xB6E JUMP JUMPDEST PUSH1 0x40 MLOAD PUSH3 0x461BCD PUSH1 0xE5 SHL DUP2 MSTORE PUSH1 0x20 PUSH1 0x4 DUP3 ADD MSTORE PUSH1 0xC PUSH1 0x24 DUP3 ADD MSTORE PUSH12 0x496E76616C696420636F6465 PUSH1 0xA0 SHL PUSH1 0x44 DUP3 ADD MSTORE PUSH1 0x64 SWAP1 REVERT JUMPDEST SWAP4 SWAP1 SWAP5 PUSH1 0xFF PUSH2 0xD21 PUSH2 0xD1C DUP8 DUP6 DUP6 PUSH2 0x3387 JUMP JUMPDEST PUSH2 0x3181 JUMP JUMPDEST AND SWAP2 DUP3 SWAP5 PUSH1 0x0 SWAP6 PUSH27 0x184F03E93FF9F4DAA797ED6E38ED64BF6A1F010000000000000000 DUP1 DUP7 LT ISZERO PUSH2 0xEAC JUMPI JUMPDEST POP PUSH1 0xA SWAP1 PUSH14 0x4EE2D6D415B85ACEF8100000000 DUP1 DUP3 LT ISZERO PUSH2 0xE9F JUMPI JUMPDEST POP PUSH7 0x2386F26FC10000 DUP1 DUP3 LT ISZERO PUSH2 0xE92 JUMPI JUMPDEST POP PUSH4 0x5F5E100 DUP1 DUP3 LT ISZERO PUSH2 0xE85 JUMPI JUMPDEST POP PUSH2 0x2710 DUP1 DUP3 LT ISZERO PUSH2 0xE78 JUMPI JUMPDEST POP PUSH1 0x64 DUP1 DUP3 LT ISZERO PUSH2 0xE6B JUMPI JUMPDEST POP LT ISZERO PUSH2 0xE61 JUMPI JUMPDEST PUSH1 0xA PUSH1 0x21 PUSH1 0x1 DUP9 ADD SWAP8 PUSH2 0xDD6 PUSH2 0xDC0 DUP11 PUSH2 0x3538 JUMP JUMPDEST SWAP10 PUSH2 0xDCE PUSH1 0x40 MLOAD SWAP12 DUP13 PUSH2 0x27ED JUMP JUMPDEST DUP1 DUP12 MSTORE PUSH2 0x3538 JUMP JUMPDEST PUSH1 0x1F NOT ADD CALLDATASIZE PUSH1 0x20 DUP12 ADD CALLDATACOPY DUP9 ADD ADD JUMPDEST PUSH1 0x0 NOT ADD SWAP5 PUSH16 0x181899199A1A9B1B9C1CB0B131B232B3 PUSH1 0x81 SHL DUP3 DUP3 MOD BYTE DUP7 MSTORE8 DIV SWAP4 DUP5 ISZERO PUSH2 0xE13 JUMPI PUSH1 0xA SWAP1 PUSH2 0xDE4 JUMP JUMPDEST POP SWAP5 SWAP1 SWAP6 SWAP3 POP PUSH2 0xE5A PUSH1 0x20 PUSH1 0x1 SWAP4 SWAP9 PUSH1 0x40 MLOAD SWAP4 DUP2 PUSH2 0xE3A DUP7 SWAP4 MLOAD DUP1 SWAP3 DUP7 DUP1 DUP8 ADD SWAP2 ADD PUSH2 0x3501 JUMP JUMPDEST DUP3 ADD PUSH2 0xE4E DUP3 MLOAD DUP1 SWAP4 DUP7 DUP1 DUP6 ADD SWAP2 ADD PUSH2 0x3501 JUMP JUMPDEST ADD SUB DUP1 DUP5 MSTORE ADD DUP3 PUSH2 0x27ED JUMP JUMPDEST SWAP2 ADD PUSH2 0xAF3 JUMP JUMPDEST SWAP5 PUSH1 0x1 ADD SWAP5 PUSH2 0xDAB JUMP JUMPDEST PUSH1 0x2 SWAP2 DIV SWAP8 ADD SWAP7 DUP11 PUSH2 0xDA3 JUMP JUMPDEST PUSH1 0x4 SWAP2 DIV SWAP8 ADD SWAP7 DUP11 PUSH2 0xD97 JUMP JUMPDEST PUSH1 0x8 SWAP2 DIV SWAP8 ADD SWAP7 DUP11 PUSH2 0xD8A JUMP JUMPDEST PUSH1 0x10 SWAP2 DIV SWAP8 ADD SWAP7 DUP11 PUSH2 0xD7B JUMP JUMPDEST PUSH1 0x20 SWAP2 DIV SWAP8 ADD SWAP7 DUP11 PUSH2 0xD69 JUMP JUMPDEST PUSH1 0x40 SWAP8 POP DUP6 DIV SWAP1 POP PUSH1 0xA PUSH2 0xD4D JUMP JUMPDEST PUSH2 0xEC4 DUP2 PUSH2 0x33D8 JUMP JUMPDEST PUSH2 0xADA JUMP JUMPDEST SWAP1 POP ISZERO ISZERO DUP6 PUSH2 0xAD4 JUMP JUMPDEST PUSH1 0x10 DUP2 ADD DUP1 SLOAD PUSH1 0xFF NOT AND SWAP1 SSTORE PUSH1 0x0 DUP1 MLOAD PUSH1 0x20 PUSH2 0x3554 DUP4 CODECOPY DUP2 MLOAD SWAP2 MSTORE PUSH1 0x0 DUP1 LOG1 PUSH2 0xABC JUMP JUMPDEST POP PUSH1 0x5 DUP2 DUP2 ADD SLOAD EQ PUSH2 0xAA6 JUMP JUMPDEST CALLVALUE PUSH2 0x294 JUMPI PUSH1 0x40 CALLDATASIZE PUSH1 0x3 NOT ADD SLT PUSH2 0x294 JUMPI PUSH2 0xF1D PUSH2 0x2E99 JUMP JUMPDEST PUSH2 0xF31 PUSH1 0xFF PUSH1 0x1 SLOAD AND PUSH1 0xFF DUP4 AND GT ISZERO PUSH2 0x2F02 JUMP JUMPDEST PUSH1 0xFF DUP2 AND PUSH1 0x0 MSTORE PUSH1 0x0 PUSH1 0x20 MSTORE PUSH2 0xF51 PUSH1 0xFF PUSH1 0x10 PUSH1 0x40 PUSH1 0x0 KECCAK256 ADD SLOAD AND PUSH2 0x2F7D JUMP JUMPDEST PUSH1 0xFF DUP2 AND PUSH1 0x0 MSTORE PUSH1 0x0 PUSH1 0x20 MSTORE PUSH2 0xF79 PUSH1 0x40 PUSH1 0x0 KECCAK256 PUSH1 0x7 PUSH1 0x1 DUP1 PUSH1 0xA0 SHL SUB SWAP2 ADD SLOAD AND CALLER EQ PUSH2 0x2FC9 JUMP JUMPDEST PUSH1 0xFF DUP2 AND PUSH1 0x0 MSTORE PUSH1 0x0 PUSH1 0x20 MSTORE PUSH2 0xFA0 PUSH1 0x1 DUP1 PUSH1 0xA0 SHL SUB PUSH1 0xD PUSH1 0x40 PUSH1 0x0 KECCAK256 ADD SLOAD AND CALLER EQ PUSH2 0x3021 JUMP JUMPDEST PUSH1 0xFF DUP2 AND PUSH1 0x0 MSTORE PUSH1 0x0 PUSH1 0x20 MSTORE PUSH1 0x40 PUSH1 0x0 KECCAK256 SWAP1 PUSH1 0xA DUP3 ADD SLOAD PUSH2 0x1574 JUMPI JUMPDEST PUSH1 0x6 PUSH1 0xB DUP4 ADD SLOAD EQ PUSH2 0x1529 JUMPI PUSH1 0x1 DUP1 PUSH1 0xA0 SHL SUB PUSH1 0xE DUP4 ADD SLOAD AND DUP1 CALLER EQ ISZERO SWAP1 DUP2 PUSH2 0x151F JUMPI JUMPDEST POP PUSH2 0x1511 JUMPI JUMPDEST PUSH1 0x7 DUP3 ADD SLOAD PUSH1 0x6 DUP4 ADD SLOAD PUSH1 0x40 MLOAD PUSH1 0x1 PUSH1 0x1 PUSH1 0xA0 SHL SUB SWAP3 DUP4 AND SWAP5 SWAP3 SWAP1 SWAP2 AND PUSH2 0x100C DUP3 PUSH2 0x27B7 JUMP JUMPDEST PUSH1 0x0 DUP3 MSTORE PUSH1 0x40 MLOAD SWAP5 PUSH2 0x101D DUP7 PUSH2 0x27B7 JUMP JUMPDEST PUSH1 0x0 DUP7 MSTORE PUSH1 0x40 MLOAD SWAP2 PUSH2 0x102E DUP4 PUSH2 0x27B7 JUMP JUMPDEST PUSH1 0x0 DUP4 MSTORE PUSH1 0x40 MLOAD SWAP7 PUSH2 0x103F DUP9 PUSH2 0x279B JUMP JUMPDEST PUSH1 0x0 DUP9 MSTORE PUSH1 0x20 DUP9 ADD DUP6 SWAP1 MSTORE PUSH1 0x40 DUP9 ADD MSTORE PUSH1 0x60 DUP8 ADD MSTORE PUSH1 0x80 DUP7 ADD MSTORE PUSH1 0x24 CALLDATALOAD PUSH1 0xA0 DUP7 ADD MSTORE PUSH1 0xC0 DUP6 ADD MSTORE TIMESTAMP PUSH1 0xE0 DUP6 ADD MSTORE PUSH1 0x3 DUP3 ADD DUP1 SLOAD PUSH1 0xFF NOT AND SWAP1 SSTORE DUP1 MLOAD SWAP1 PUSH1 0x1 PUSH1 0x40 SHL DUP3 GT PUSH2 0x8FF JUMPI PUSH1 0x4 DUP4 ADD SLOAD DUP3 PUSH1 0x4 DUP6 ADD SSTORE DUP1 DUP4 LT PUSH2 0x14DE JUMPI JUMPDEST POP PUSH1 0x20 ADD SWAP1 PUSH1 0x4 DUP4 ADD PUSH1 0x0 MSTORE PUSH1 0x20 PUSH1 0x0 KECCAK256 SWAP2 PUSH1 0x0 SWAP1 JUMPDEST DUP3 DUP3 LT PUSH2 0x13ED JUMPI POP POP POP POP PUSH1 0x40 DUP4 ADD MLOAD DUP1 MLOAD SWAP1 PUSH1 0x1 PUSH1 0x40 SHL DUP3 GT PUSH2 0x8FF JUMPI PUSH1 0x5 DUP4 ADD SLOAD DUP3 PUSH1 0x5 DUP6 ADD SSTORE DUP1 DUP4 LT PUSH2 0x13BA JUMPI JUMPDEST POP PUSH1 0x20 ADD SWAP1 PUSH1 0x5 DUP4 ADD PUSH1 0x0 MSTORE PUSH1 0x20 PUSH1 0x0 KECCAK256 SWAP2 PUSH1 0x0 SWAP1 JUMPDEST DUP3 DUP3 LT PUSH2 0x12C9 JUMPI POP POP POP POP PUSH1 0x60 DUP4 ADD MLOAD PUSH1 0x6 DUP3 ADD DUP1 SLOAD PUSH1 0x1 PUSH1 0x1 PUSH1 0xA0 SHL SUB SWAP3 DUP4 AND PUSH1 0x1 PUSH1 0x1 PUSH1 0xA0 SHL SUB NOT SWAP2 DUP3 AND OR SWAP1 SWAP2 SSTORE PUSH1 0x80 DUP6 ADD MLOAD PUSH1 0x7 DUP5 ADD DUP1 SLOAD SWAP2 SWAP1 SWAP4 AND SWAP2 AND OR SWAP1 SSTORE PUSH1 0xA0 DUP4 ADD MLOAD PUSH1 0x8 DUP3 ADD SSTORE PUSH1 0xC0 DUP4 ADD MLOAD DUP1 MLOAD SWAP4 SWAP1 PUSH1 0x1 PUSH1 0x1 PUSH1 0x40 SHL SUB DUP6 GT PUSH2 0x8FF JUMPI PUSH1 0x20 SWAP1 PUSH2 0x116C DUP7 PUSH1 0x9 DUP7 ADD PUSH2 0x310D JUMP JUMPDEST ADD SWAP4 PUSH1 0x9 DUP4 ADD PUSH1 0x0 MSTORE PUSH1 0x20 PUSH1 0x0 KECCAK256 SWAP1 PUSH1 0x0 JUMPDEST DUP2 PUSH1 0x5 SHR DUP2 LT PUSH2 0x1289 JUMPI POP PUSH1 0x1F NOT DUP2 AND DUP2 SUB DUP1 PUSH2 0x1214 JUMPI JUMPDEST PUSH32 0x8A014C84A6C004EEE93A5BD142B593768E4ABC3593FAB1B7EE798E308835D77C PUSH1 0x60 DUP8 DUP8 PUSH1 0xE0 DUP9 ADD MLOAD PUSH1 0xA DUP3 ADD SSTORE PUSH2 0x11D2 PUSH1 0xB DUP3 ADD SLOAD PUSH2 0x3357 JUMP JUMPDEST PUSH1 0xB DUP3 ADD SSTORE PUSH1 0xD PUSH1 0x1 DUP1 PUSH1 0xA0 SHL SUB PUSH1 0x6 DUP4 ADD SLOAD AND SWAP2 ADD SWAP1 PUSH1 0x1 PUSH1 0x1 PUSH1 0x60 SHL SUB PUSH1 0xA0 SHL DUP3 SLOAD AND OR SWAP1 SSTORE PUSH1 0xFF PUSH1 0x40 MLOAD SWAP2 AND DUP2 MSTORE CALLER PUSH1 0x20 DUP3 ADD MSTORE PUSH1 0x24 CALLDATALOAD PUSH1 0x40 DUP3 ADD MSTORE LOG1 STOP JUMPDEST SWAP6 PUSH1 0x0 SWAP7 PUSH1 0x0 JUMPDEST DUP2 DUP2 LT PUSH2 0x1259 JUMPI POP POP POP PUSH1 0x5 SHR ADD SWAP4 SWAP1 SWAP4 SSTORE PUSH32 0x8A014C84A6C004EEE93A5BD142B593768E4ABC3593FAB1B7EE798E308835D77C SWAP3 PUSH1 0xE0 PUSH1 0x60 DUP7 PUSH2 0x1196 JUMP JUMPDEST SWAP1 SWAP2 SWAP8 PUSH1 0x20 PUSH2 0x127F PUSH1 0x1 SWAP3 DUP5 PUSH1 0xFF DUP14 MLOAD AND SWAP2 SWAP1 PUSH1 0xFF DUP1 SWAP2 PUSH1 0x3 SHL SWAP4 AND DUP4 SHL SWAP3 SHL NOT AND OR SWAP1 JUMP JUMPDEST SWAP10 ADD SWAP3 SWAP2 ADD PUSH2 0x121B JUMP JUMPDEST PUSH1 0x0 DUP1 JUMPDEST PUSH1 0x20 DUP2 LT PUSH2 0x12A2 JUMPI POP DUP4 DUP3 ADD SSTORE PUSH1 0x1 ADD PUSH2 0x117E JUMP JUMPDEST DUP9 MLOAD SWAP1 SWAP9 SWAP2 PUSH1 0x1 SWAP2 PUSH1 0x20 SWAP2 PUSH1 0xFF PUSH1 0x3 DUP14 SWAP1 SHL DUP2 DUP2 SHL NOT SWAP1 SWAP3 AND SWAP3 AND SWAP1 SHL OR SWAP3 ADD SWAP9 ADD PUSH2 0x128D JUMP JUMPDEST DUP1 MLOAD DUP1 MLOAD SWAP1 PUSH1 0x1 PUSH1 0x1 PUSH1 0x40 SHL SUB DUP3 GT PUSH2 0x8FF JUMPI PUSH1 0x20 SWAP1 PUSH2 0x12E9 DUP4 DUP9 PUSH2 0x310D JUMP JUMPDEST ADD SWAP1 DUP6 PUSH1 0x0 MSTORE PUSH1 0x20 PUSH1 0x0 KECCAK256 SWAP1 PUSH1 0x0 JUMPDEST DUP2 PUSH1 0x5 SHR DUP2 LT PUSH2 0x137A JUMPI POP PUSH1 0x1F NOT DUP2 AND SWAP3 DUP4 DUP3 SUB PUSH2 0x1327 JUMPI JUMPDEST POP POP POP POP PUSH1 0x1 PUSH1 0x20 DUP2 SWAP3 ADD SWAP5 ADD SWAP2 ADD SWAP1 SWAP3 PUSH2 0x10F6 JUMP JUMPDEST PUSH1 0x0 SWAP4 PUSH1 0x0 SWAP1 JUMPDEST DUP1 DUP5 SUB DUP3 LT PUSH2 0x134A JUMPI POP POP POP PUSH1 0x5 SHR ADD SSTORE PUSH1 0x1 PUSH1 0x20 DUP2 DUP11 PUSH2 0x1311 JUMP JUMPDEST SWAP1 SWAP2 SWAP5 PUSH1 0x20 PUSH2 0x1370 PUSH1 0x1 SWAP3 DUP6 PUSH1 0xFF DUP11 MLOAD AND SWAP2 SWAP1 PUSH1 0xFF DUP1 SWAP2 PUSH1 0x3 SHL SWAP4 AND DUP4 SHL SWAP3 SHL NOT AND OR SWAP1 JUMP JUMPDEST SWAP7 ADD SWAP3 ADD SWAP1 PUSH2 0x132E JUMP JUMPDEST PUSH1 0x0 DUP1 JUMPDEST PUSH1 0x20 DUP2 LT PUSH2 0x1393 JUMPI POP DUP4 DUP3 ADD SSTORE PUSH1 0x1 ADD PUSH2 0x12F8 JUMP JUMPDEST DUP6 MLOAD SWAP1 SWAP6 SWAP2 PUSH1 0x1 SWAP2 PUSH1 0x20 SWAP2 PUSH1 0xFF PUSH1 0x3 DUP11 SWAP1 SHL DUP2 DUP2 SHL NOT SWAP1 SWAP3 AND SWAP3 AND SWAP1 SHL OR SWAP3 ADD SWAP6 ADD PUSH2 0x137E JUMP JUMPDEST PUSH1 0x5 DUP5 ADD PUSH1 0x0 MSTORE PUSH1 0x20 PUSH1 0x0 KECCAK256 SWAP1 DUP4 DUP3 ADD JUMPDEST DUP2 DUP4 ADD DUP2 LT PUSH2 0x13DB JUMPI POP POP PUSH2 0x10E0 JUMP JUMPDEST DUP1 PUSH2 0x13E7 PUSH1 0x1 SWAP3 PUSH2 0x30CF JUMP JUMPDEST ADD PUSH2 0x13CB JUMP JUMPDEST DUP1 MLOAD DUP1 MLOAD SWAP1 PUSH1 0x1 PUSH1 0x1 PUSH1 0x40 SHL SUB DUP3 GT PUSH2 0x8FF JUMPI PUSH1 0x20 SWAP1 PUSH2 0x140D DUP4 DUP9 PUSH2 0x310D JUMP JUMPDEST ADD SWAP1 DUP6 PUSH1 0x0 MSTORE PUSH1 0x20 PUSH1 0x0 KECCAK256 SWAP1 PUSH1 0x0 JUMPDEST DUP2 PUSH1 0x5 SHR DUP2 LT PUSH2 0x149E JUMPI POP PUSH1 0x1F NOT DUP2 AND SWAP3 DUP4 DUP3 SUB PUSH2 0x144B JUMPI JUMPDEST POP POP POP POP PUSH1 0x1 PUSH1 0x20 DUP2 SWAP3 ADD SWAP5 ADD SWAP2 ADD SWAP1 SWAP3 PUSH2 0x10AF JUMP JUMPDEST PUSH1 0x0 SWAP4 PUSH1 0x0 SWAP1 JUMPDEST DUP1 DUP5 SUB DUP3 LT PUSH2 0x146E JUMPI POP POP POP PUSH1 0x5 SHR ADD SSTORE PUSH1 0x1 PUSH1 0x20 DUP2 DUP11 PUSH2 0x1435 JUMP JUMPDEST SWAP1 SWAP2 SWAP5 PUSH1 0x20 PUSH2 0x1494 PUSH1 0x1 SWAP3 DUP6 PUSH1 0xFF DUP11 MLOAD AND SWAP2 SWAP1 PUSH1 0xFF DUP1 SWAP2 PUSH1 0x3 SHL SWAP4 AND DUP4 SHL SWAP3 SHL NOT AND OR SWAP1 JUMP JUMPDEST SWAP7 ADD SWAP3 ADD SWAP1 PUSH2 0x1452 JUMP JUMPDEST PUSH1 0x0 DUP1 JUMPDEST PUSH1 0x20 DUP2 LT PUSH2 0x14B7 JUMPI POP DUP4 DUP3 ADD SSTORE PUSH1 0x1 ADD PUSH2 0x141C JUMP JUMPDEST DUP6 MLOAD SWAP1 SWAP6 SWAP2 PUSH1 0x1 SWAP2 PUSH1 0x20 SWAP2 PUSH1 0xFF PUSH1 0x3 DUP11 SWAP1 SHL DUP2 DUP2 SHL NOT SWAP1 SWAP3 AND SWAP3 AND SWAP1 SHL OR SWAP3 ADD SWAP6 ADD PUSH2 0x14A2 JUMP JUMPDEST PUSH1 0x4 DUP5 ADD PUSH1 0x0 MSTORE PUSH1 0x20 PUSH1 0x0 KECCAK256 SWAP1 DUP4 DUP3 ADD JUMPDEST DUP2 DUP4 ADD DUP2 LT PUSH2 0x14FF JUMPI POP POP PUSH2 0x1099 JUMP JUMPDEST DUP1 PUSH2 0x150B PUSH1 0x1 SWAP3 PUSH2 0x30CF JUMP JUMPDEST ADD PUSH2 0x14EF JUMP JUMPDEST PUSH2 0x151A DUP3 PUSH2 0x33D8 JUMP JUMPDEST PUSH2 0xFE6 JUMP JUMPDEST SWAP1 POP ISZERO ISZERO DUP4 PUSH2 0xFE0 JUMP JUMPDEST PUSH1 0x64 PUSH1 0x40 MLOAD PUSH1 0x0 DUP1 MLOAD PUSH1 0x20 PUSH2 0x3554 DUP4 CODECOPY DUP2 MLOAD SWAP2 MSTORE PUSH1 0x0 DUP1 LOG1 PUSH3 0x461BCD PUSH1 0xE5 SHL DUP2 MSTORE PUSH1 0x20 PUSH1 0x4 DUP3 ADD MSTORE PUSH1 0x11 PUSH1 0x24 DUP3 ADD MSTORE PUSH17 0x13585E081D1D5C9B9CC81C995858DA1959 PUSH1 0x7A SHL PUSH1 0x44 DUP3 ADD MSTORE REVERT JUMPDEST PUSH1 0xFF PUSH1 0x3 DUP4 ADD SLOAD AND PUSH2 0xFBC JUMPI PUSH1 0x40 MLOAD PUSH3 0x461BCD PUSH1 0xE5 SHL DUP2 MSTORE PUSH1 0x20 PUSH1 0x4 DUP3 ADD MSTORE PUSH1 0x1E PUSH1 0x24 DUP3 ADD MSTORE PUSH32 0x50726576696F7573207475726E206E6F742066696E6973686564207965740000 PUSH1 0x44 DUP3 ADD MSTORE PUSH1 0x64 SWAP1 REVERT JUMPDEST CALLVALUE PUSH2 0x294 JUMPI PUSH1 0x20 DUP1 PUSH1 0x3 NOT CALLDATASIZE ADD SLT PUSH2 0x294 JUMPI PUSH1 0xFF PUSH2 0x15E1 PUSH2 0x2E99 JUMP JUMPDEST AND SWAP1 DUP2 PUSH1 0x0 MSTORE PUSH1 0x0 DUP2 MSTORE PUSH2 0x15FF PUSH1 0xFF PUSH1 0x10 PUSH1 0x40 PUSH1 0x0 KECCAK256 ADD SLOAD AND PUSH2 0x2F7D JUMP JUMPDEST PUSH1 0x0 DUP3 DUP2 MSTORE DUP1 DUP3 MSTORE PUSH1 0x40 SWAP1 KECCAK256 DUP1 SLOAD PUSH1 0x1 PUSH1 0x1 PUSH1 0xA0 SHL SUB SWAP1 DUP2 AND CALLER EQ DUP1 ISZERO PUSH2 0x1774 JUMPI JUMPDEST ISZERO PUSH2 0x172F JUMPI PUSH1 0xD DUP3 ADD SLOAD AND CALLER EQ PUSH2 0x16E0 JUMPI PUSH1 0xF DUP2 ADD SWAP1 DUP2 SLOAD PUSH2 0x1690 JUMPI SWAP2 PUSH32 0x49CA67B925D3B4C5BD7C75E330902493AE8CACF254867B0961B6F448E3D78AAA SWAP4 SWAP2 PUSH1 0xE PUSH1 0x60 SWAP5 ADD CALLER PUSH1 0x1 PUSH1 0x1 PUSH1 0x60 SHL SUB PUSH1 0xA0 SHL DUP3 SLOAD AND OR SWAP1 SSTORE TIMESTAMP SWAP1 SSTORE PUSH1 0x40 MLOAD SWAP2 DUP3 MSTORE CALLER SWAP1 DUP3 ADD MSTORE TIMESTAMP PUSH1 0x40 DUP3 ADD MSTORE LOG1 STOP JUMPDEST PUSH1 0x40 MLOAD PUSH3 0x461BCD PUSH1 0xE5 SHL DUP2 MSTORE PUSH1 0x4 DUP2 ADD DUP5 SWAP1 MSTORE PUSH1 0x22 PUSH1 0x24 DUP3 ADD MSTORE PUSH32 0x41464B2061636375736174696F6E20616C726561647920696E2070726F677265 PUSH1 0x44 DUP3 ADD MSTORE PUSH2 0x7373 PUSH1 0xF0 SHL PUSH1 0x64 DUP3 ADD MSTORE PUSH1 0x84 SWAP1 REVERT JUMPDEST PUSH1 0x40 MLOAD PUSH3 0x461BCD PUSH1 0xE5 SHL DUP2 MSTORE PUSH1 0x4 DUP2 ADD DUP4 SWAP1 MSTORE PUSH1 0x21 PUSH1 0x24 DUP3 ADD MSTORE PUSH32 0x43616E6E6F7420616363757365207768656E206974277320796F757220747572 PUSH1 0x44 DUP3 ADD MSTORE PUSH1 0x37 PUSH1 0xF9 SHL PUSH1 0x64 DUP3 ADD MSTORE PUSH1 0x84 SWAP1 REVERT JUMPDEST PUSH1 0x40 MLOAD PUSH3 0x461BCD PUSH1 0xE5 SHL DUP2 MSTORE PUSH1 0x4 DUP2 ADD DUP5 SWAP1 MSTORE PUSH1 0x17 PUSH1 0x24 DUP3 ADD MSTORE PUSH32 0x4F6E6C7920706C61796572732063616E20616363757365000000000000000000 PUSH1 0x44 DUP3 ADD MSTORE PUSH1 0x64 SWAP1 REVERT JUMPDEST POP DUP1 PUSH1 0x1 DUP4 ADD SLOAD AND CALLER EQ PUSH2 0x1621 JUMP JUMPDEST CALLVALUE PUSH2 0x294 JUMPI PUSH2 0x1791 CALLDATASIZE PUSH2 0x2EA9 JUMP JUMPDEST SWAP2 PUSH1 0xFF SWAP3 PUSH1 0x1 SWAP4 PUSH1 0x7 PUSH1 0xFF PUSH1 0x1 SLOAD AND PUSH2 0x17B0 PUSH1 0xFF DUP7 AND DUP1 SWAP3 LT ISZERO PUSH2 0x2F02 JUMP JUMPDEST PUSH2 0x17BC PUSH1 0x4 DUP6 EQ PUSH2 0x2F40 JUMP JUMPDEST DUP1 PUSH1 0x0 MSTORE PUSH1 0x0 PUSH1 0x20 MSTORE PUSH2 0x17D9 PUSH1 0xFF PUSH1 0x10 PUSH1 0x40 PUSH1 0x0 KECCAK256 ADD SLOAD AND PUSH2 0x2F7D JUMP JUMPDEST DUP1 PUSH1 0x0 MSTORE PUSH1 0x0 PUSH1 0x20 MSTORE PUSH2 0x17FE PUSH1 0x40 PUSH1 0x0 KECCAK256 PUSH1 0x1 DUP1 PUSH1 0xA0 SHL SUB SWAP4 DUP5 SWAP2 ADD SLOAD AND CALLER EQ PUSH2 0x2FC9 JUMP JUMPDEST DUP1 PUSH1 0x0 MSTORE PUSH1 0x0 PUSH1 0x20 MSTORE PUSH2 0x181C DUP3 PUSH1 0xD PUSH1 0x40 PUSH1 0x0 KECCAK256 ADD SLOAD AND CALLER EQ PUSH2 0x3021 JUMP JUMPDEST PUSH1 0x0 MSTORE PUSH1 0x0 PUSH1 0x20 MSTORE PUSH1 0x40 PUSH1 0x0 KECCAK256 SWAP1 PUSH1 0x3 DUP3 ADD PUSH2 0x183C PUSH1 0xFF DUP3 SLOAD AND ISZERO PUSH2 0x305D JUMP JUMPDEST DUP2 PUSH1 0xE DUP5 ADD SLOAD AND DUP1 CALLER EQ ISZERO SWAP1 DUP2 PUSH2 0x197B JUMPI JUMPDEST POP PUSH2 0x196D JUMPI JUMPDEST PUSH1 0x5 DUP4 ADD SWAP4 PUSH2 0x1864 DUP7 DUP10 DUP8 PUSH2 0x3262 JUMP JUMPDEST PUSH1 0xA DUP5 ADD SWAP5 TIMESTAMP DUP7 SSTORE PUSH1 0x1 SWAP2 PUSH1 0x0 JUMPDEST DUP9 DUP2 LT PUSH2 0x191B JUMPI JUMPDEST POP POP PUSH32 0x7F0F81AB631587113A25BBC8CA106EE2264BD96E26BDA98356E28340BD602DF4 SWAP10 POP SWAP2 DUP2 PUSH1 0xD SWAP4 PUSH2 0x3B1 SWAP9 SWAP8 SWAP7 SWAP6 SWAP4 SWAP2 ISZERO PUSH2 0x190F JUMPI JUMPDEST POP ISZERO PUSH2 0x18EF JUMPI PUSH1 0x1 PUSH1 0xFF NOT DUP3 SLOAD AND OR SWAP1 SSTORE PUSH1 0x7 DUP4 ADD SLOAD AND SWAP2 ADD SWAP1 PUSH1 0x1 PUSH1 0x1 PUSH1 0x60 SHL SUB PUSH1 0xA0 SHL DUP3 SLOAD AND OR SWAP1 SSTORE JUMPDEST SLOAD SWAP1 PUSH1 0x40 MLOAD SWAP5 DUP6 SWAP5 CALLER SWAP1 DUP7 PUSH2 0x32F0 JUMP JUMPDEST POP PUSH1 0x6 DUP4 ADD SLOAD AND SWAP2 ADD SWAP1 PUSH1 0x1 PUSH1 0x1 PUSH1 0x60 SHL SUB PUSH1 0xA0 SHL DUP3 SLOAD AND OR SWAP1 SSTORE PUSH2 0x18DF JUMP JUMPDEST PUSH1 0x5 SWAP2 POP SLOAD EQ DUP12 PUSH2 0x18B3 JUMP JUMPDEST PUSH1 0x2 DUP3 PUSH2 0x192D PUSH2 0xD1C DUP5 DUP16 DUP15 SWAP1 PUSH2 0x3387 JUMP JUMPDEST AND SUB PUSH2 0x193A JUMPI DUP12 ADD PUSH2 0x1872 JUMP JUMPDEST POP PUSH32 0x7F0F81AB631587113A25BBC8CA106EE2264BD96E26BDA98356E28340BD602DF4 SWAP11 POP PUSH1 0x0 SWAP3 POP DUP2 SWAP1 POP PUSH2 0x3B1 PUSH2 0x187A JUMP JUMPDEST PUSH2 0x1976 DUP4 PUSH2 0x33D8 JUMP JUMPDEST PUSH2 0x1854 JUMP JUMPDEST SWAP1 POP ISZERO ISZERO DUP10 PUSH2 0x184E JUMP JUMPDEST PUSH1 0x0 CALLDATASIZE PUSH1 0x3 NOT ADD SLT PUSH2 0x294 JUMPI PUSH1 0x0 PUSH1 0xFF PUSH1 0x1 SWAP1 PUSH1 0xFF DUP3 SLOAD AND SWAP1 DUP3 PUSH2 0x19A8 DUP4 PUSH2 0x280E JUMP JUMPDEST SWAP3 PUSH2 0x19B6 PUSH1 0x40 MLOAD SWAP5 DUP6 PUSH2 0x27ED JUMP JUMPDEST DUP1 DUP5 MSTORE PUSH2 0x19C2 DUP2 PUSH2 0x280E JUMP JUMPDEST PUSH1 0x20 SWAP4 SWAP1 PUSH1 0x1F NOT ADD CALLDATASIZE DUP7 DUP7 ADD CALLDATACOPY DUP3 DUP1 JUMPDEST PUSH2 0x1AF8 JUMPI JUMPDEST POP POP POP POP POP DUP3 ISZERO PUSH2 0x1ABE JUMPI PUSH2 0x1A32 PUSH1 0xFF SWAP2 PUSH32 0x23BAF8A79998232699A3BADF1BBC9639968EFA833C7E245673EA0F9CE0A51429 SWAP5 PUSH1 0x40 MLOAD PUSH1 0x20 DUP2 ADD SWAP1 TIMESTAMP DUP3 MSTORE PREVRANDAO PUSH1 0x40 DUP3 ADD MSTORE PUSH1 0x40 DUP2 MSTORE PUSH2 0x1A28 DUP2 PUSH2 0x27D2 JUMP JUMPDEST MLOAD SWAP1 KECCAK256 MOD SWAP1 PUSH2 0x3366 JUMP JUMPDEST MLOAD AND DUP1 PUSH1 0x0 MSTORE PUSH1 0x0 PUSH1 0x20 MSTORE PUSH1 0x40 PUSH1 0x0 KECCAK256 SWAP2 DUP1 DUP4 ADD CALLER PUSH1 0x1 PUSH1 0x1 PUSH1 0x60 SHL SUB PUSH1 0xA0 SHL DUP3 SLOAD AND OR SWAP1 SSTORE PUSH1 0xC DUP4 ADD PUSH2 0x1A67 CALLVALUE DUP3 SLOAD PUSH2 0x337A JUMP JUMPDEST SWAP1 SSTORE PUSH1 0x10 DUP4 ADD SWAP1 PUSH1 0xFF NOT DUP3 SLOAD AND OR SWAP1 SSTORE PUSH2 0x1A80 DUP3 PUSH2 0x3480 JUMP JUMPDEST PUSH1 0x7 DUP3 ADD SLOAD PUSH1 0x6 SWAP3 SWAP1 SWAP3 ADD SLOAD PUSH1 0x40 DUP1 MLOAD PUSH1 0xFF SWAP1 SWAP4 AND DUP4 MSTORE CALLER PUSH1 0x20 DUP5 ADD MSTORE PUSH1 0x1 PUSH1 0x1 PUSH1 0xA0 SHL SUB SWAP4 DUP5 AND SWAP1 DUP4 ADD MSTORE SWAP1 SWAP2 AND PUSH1 0x60 DUP3 ADD MSTORE DUP1 PUSH1 0x80 DUP2 ADD PUSH2 0x3B1 JUMP JUMPDEST PUSH1 0x40 MLOAD PUSH3 0x461BCD PUSH1 0xE5 SHL DUP2 MSTORE PUSH1 0x20 PUSH1 0x4 DUP3 ADD MSTORE PUSH1 0x12 PUSH1 0x24 DUP3 ADD MSTORE PUSH18 0x4E6F2067616D657320617661696C61626C65 PUSH1 0x70 SHL PUSH1 0x44 DUP3 ADD MSTORE PUSH1 0x64 SWAP1 REVERT JUMPDEST DUP2 DUP2 AND SWAP1 DUP4 DUP3 GT PUSH2 0x1BC6 JUMPI DUP2 PUSH2 0x1B34 SWAP3 PUSH1 0x0 MSTORE PUSH1 0x0 DUP8 MSTORE PUSH1 0x40 PUSH1 0x0 KECCAK256 DUP5 PUSH1 0x10 DUP3 ADD SLOAD AND ISZERO DUP1 PUSH2 0x1BB2 JUMPI JUMPDEST DUP1 PUSH2 0x1BA5 JUMPI JUMPDEST PUSH2 0x1B3A JUMPI JUMPDEST POP POP PUSH2 0x3346 JUMP JUMPDEST DUP4 PUSH2 0x19D2 JUMP JUMPDEST DUP5 DUP8 DUP3 ADD SLOAD PUSH1 0xB0 SHR AND DUP1 SWAP2 DUP2 SWAP3 PUSH2 0x1B8E JUMPI JUMPDEST POP ISZERO PUSH2 0x1B6F JUMPI POP PUSH2 0x1B66 PUSH2 0x1B5F DUP12 PUSH2 0x3357 JUMP JUMPDEST SWAP11 DUP10 PUSH2 0x3366 JUMP JUMPDEST MSTORE JUMPDEST DUP10 DUP1 PUSH2 0x1B2D JUMP JUMPDEST ISZERO PUSH2 0x1B7B JUMPI JUMPDEST POP PUSH2 0x1B68 JUMP JUMPDEST PUSH2 0x1B87 PUSH2 0x1B5F DUP12 PUSH2 0x3357 JUMP JUMPDEST MSTORE DUP10 PUSH2 0x1B75 JUMP JUMPDEST PUSH1 0x2 ADD SLOAD PUSH1 0x1 PUSH1 0x1 PUSH1 0xA0 SHL SUB AND CALLER EQ SWAP1 POP DUP13 PUSH2 0x1B4C JUMP JUMPDEST POP PUSH1 0xC DUP2 ADD SLOAD CALLVALUE EQ PUSH2 0x1B28 JUMP JUMPDEST POP DUP1 SLOAD PUSH1 0x1 PUSH1 0x1 PUSH1 0xA0 SHL SUB AND CALLER EQ ISZERO PUSH2 0x1B22 JUMP JUMPDEST POP PUSH2 0x19D7 JUMP JUMPDEST PUSH1 0x40 CALLDATASIZE PUSH1 0x3 NOT ADD SLT PUSH2 0x294 JUMPI PUSH1 0x4 CALLDATALOAD DUP1 ISZERO ISZERO DUP1 SWAP2 SUB PUSH2 0x294 JUMPI PUSH1 0x24 CALLDATALOAD PUSH1 0x1 PUSH1 0x1 PUSH1 0xA0 SHL SUB DUP2 AND SWAP1 DUP2 DUP2 SUB PUSH2 0x294 JUMPI CALLVALUE ISZERO PUSH2 0x22CA JUMPI PUSH1 0x1 SLOAD SWAP2 PUSH1 0xFF PUSH2 0x1C11 DUP2 DUP6 AND PUSH2 0x3346 JUMP JUMPDEST AND DUP1 SWAP4 PUSH1 0xFF NOT AND OR PUSH1 0x1 SSTORE ISZERO PUSH1 0x0 EQ PUSH2 0x22C5 JUMPI POP PUSH1 0x0 JUMPDEST PUSH1 0x40 MLOAD SWAP1 PUSH2 0x1C35 DUP3 PUSH2 0x27B7 JUMP JUMPDEST PUSH1 0x0 DUP3 MSTORE PUSH1 0x40 MLOAD PUSH2 0x1C45 DUP2 PUSH2 0x27B7 JUMP JUMPDEST PUSH1 0x0 DUP2 MSTORE PUSH1 0x40 MLOAD SWAP1 PUSH2 0x1C56 DUP3 PUSH2 0x27B7 JUMP JUMPDEST PUSH1 0x0 DUP3 MSTORE PUSH1 0x40 MLOAD SWAP4 PUSH2 0x1C67 DUP6 PUSH2 0x279B JUMP JUMPDEST PUSH1 0x0 DUP6 MSTORE PUSH1 0x20 DUP6 ADD MSTORE PUSH1 0x40 DUP5 ADD MSTORE PUSH1 0x0 PUSH1 0x60 DUP5 ADD MSTORE PUSH1 0x0 PUSH1 0x80 DUP5 ADD MSTORE PUSH1 0x0 PUSH1 0xA0 DUP5 ADD MSTORE PUSH1 0xC0 DUP4 ADD MSTORE PUSH1 0x0 PUSH1 0xE0 DUP4 ADD MSTORE PUSH1 0x40 MLOAD SWAP4 PUSH2 0x1A0 DUP6 ADD DUP6 DUP2 LT PUSH1 0x1 PUSH1 0x1 PUSH1 0x40 SHL SUB DUP3 GT OR PUSH2 0x8FF JUMPI PUSH1 0x40 SWAP1 DUP2 MSTORE CALLER DUP7 MSTORE PUSH1 0x0 PUSH1 0x20 DUP1 DUP9 ADD DUP3 DUP2 MSTORE DUP9 DUP5 ADD DUP4 DUP2 MSTORE PUSH1 0x60 DUP11 ADD DUP5 SWAP1 MSTORE PUSH1 0x80 DUP11 ADD SWAP6 SWAP1 SWAP6 MSTORE PUSH1 0x1 PUSH1 0x1 PUSH1 0xA0 SHL SUB SWAP6 DUP7 AND PUSH1 0xA0 DUP1 DUP12 ADD SWAP2 SWAP1 SWAP2 MSTORE PUSH1 0xC0 DUP11 ADD SWAP8 SWAP1 SWAP8 MSTORE PUSH1 0xE0 DUP10 ADD DUP4 SWAP1 MSTORE CALLVALUE PUSH2 0x100 DUP11 ADD MSTORE PUSH2 0x120 DUP10 ADD DUP4 SWAP1 MSTORE PUSH2 0x140 DUP10 ADD DUP4 SWAP1 MSTORE PUSH2 0x160 DUP10 ADD DUP4 SWAP1 MSTORE PUSH2 0x180 DUP10 ADD DUP4 SWAP1 MSTORE SWAP7 DUP3 MSTORE DUP2 SWAP1 MSTORE KECCAK256 DUP6 MLOAD DUP2 SLOAD PUSH1 0x1 PUSH1 0x1 PUSH1 0xA0 SHL SUB NOT AND SWAP1 DUP5 AND OR DUP2 SSTORE SWAP4 MLOAD PUSH1 0x1 DUP6 ADD DUP1 SLOAD SWAP3 MLOAD PUSH1 0x1 PUSH1 0x1 PUSH1 0xA8 SHL SUB NOT SWAP1 SWAP4 AND SWAP2 SWAP1 SWAP4 AND OR SWAP3 SHL PUSH1 0xFF PUSH1 0xA0 SHL AND SWAP2 SWAP1 SWAP2 OR DUP2 SSTORE PUSH1 0x60 DUP4 ADD MLOAD DUP2 SLOAD PUSH1 0xFF PUSH1 0xA8 SHL NOT AND PUSH1 0xA8 SWAP2 SWAP1 SWAP2 SHL PUSH1 0xFF PUSH1 0xA8 SHL AND OR DUP2 SSTORE PUSH1 0x80 DUP4 ADD MLOAD DUP2 SLOAD PUSH1 0xFF PUSH1 0xB0 SHL NOT AND SWAP1 ISZERO ISZERO PUSH1 0xB0 SHL PUSH1 0xFF PUSH1 0xB0 SHL AND OR SWAP1 SSTORE PUSH1 0xA0 DUP3 ADD MLOAD PUSH1 0x2 DUP3 ADD DUP1 SLOAD PUSH1 0x1 PUSH1 0x1 PUSH1 0xA0 SHL SUB NOT AND PUSH1 0x1 PUSH1 0x1 PUSH1 0xA0 SHL SUB SWAP3 SWAP1 SWAP3 AND SWAP2 SWAP1 SWAP2 OR SWAP1 SSTORE PUSH1 0xC0 DUP3 ADD MLOAD DUP1 MLOAD PUSH1 0x3 DUP4 ADD DUP1 SLOAD SWAP2 ISZERO ISZERO PUSH1 0xFF AND PUSH1 0xFF NOT SWAP3 SWAP1 SWAP3 AND SWAP2 SWAP1 SWAP2 OR SWAP1 SSTORE SWAP2 PUSH1 0x20 DUP4 ADD MLOAD DUP1 MLOAD SWAP1 PUSH1 0x1 PUSH1 0x40 SHL DUP3 GT PUSH2 0x8FF JUMPI PUSH1 0x4 DUP5 ADD SLOAD DUP3 PUSH1 0x4 DUP7 ADD SSTORE DUP1 DUP4 LT PUSH2 0x2292 JUMPI JUMPDEST POP PUSH1 0x20 ADD SWAP1 PUSH1 0x4 DUP5 ADD PUSH1 0x0 MSTORE PUSH1 0x20 PUSH1 0x0 KECCAK256 SWAP2 PUSH1 0x0 SWAP1 JUMPDEST DUP3 DUP3 LT PUSH2 0x21A1 JUMPI POP POP POP POP PUSH1 0x40 DUP4 ADD MLOAD DUP1 MLOAD SWAP1 PUSH1 0x1 PUSH1 0x40 SHL DUP3 GT PUSH2 0x8FF JUMPI PUSH1 0x5 DUP5 ADD SLOAD DUP3 PUSH1 0x5 DUP7 ADD SSTORE DUP1 DUP4 LT PUSH2 0x216E JUMPI JUMPDEST POP PUSH1 0x20 ADD SWAP1 PUSH1 0x5 DUP5 ADD PUSH1 0x0 MSTORE PUSH1 0x20 PUSH1 0x0 KECCAK256 SWAP2 PUSH1 0x0 SWAP1 JUMPDEST DUP3 DUP3 LT PUSH2 0x207D JUMPI POP POP POP POP PUSH1 0x60 DUP4 ADD MLOAD PUSH1 0x6 DUP4 ADD DUP1 SLOAD PUSH1 0x1 PUSH1 0x1 PUSH1 0xA0 SHL SUB SWAP3 DUP4 AND PUSH1 0x1 PUSH1 0x1 PUSH1 0xA0 SHL SUB NOT SWAP2 DUP3 AND OR SWAP1 SWAP2 SSTORE PUSH1 0x80 DUP6 ADD MLOAD PUSH1 0x7 DUP6 ADD DUP1 SLOAD SWAP2 SWAP1 SWAP4 AND SWAP2 AND OR SWAP1 SSTORE PUSH1 0xA0 DUP4 ADD MLOAD PUSH1 0x8 DUP4 ADD SSTORE PUSH1 0xC0 DUP4 ADD MLOAD DUP1 MLOAD SWAP4 SWAP1 PUSH1 0x1 PUSH1 0x1 PUSH1 0x40 SHL SUB DUP6 GT PUSH2 0x8FF JUMPI PUSH1 0x20 SWAP1 PUSH2 0x1EE1 DUP7 PUSH1 0x9 DUP8 ADD PUSH2 0x310D JUMP JUMPDEST ADD SWAP4 PUSH1 0x9 DUP5 ADD PUSH1 0x0 MSTORE PUSH1 0x20 PUSH1 0x0 KECCAK256 SWAP1 PUSH1 0x0 JUMPDEST DUP2 PUSH1 0x5 SHR DUP2 LT PUSH2 0x203D JUMPI POP PUSH1 0x1F NOT DUP2 AND DUP1 DUP3 SUB PUSH2 0x1FE3 JUMPI JUMPDEST PUSH2 0x1F9C DUP7 PUSH1 0x10 PUSH2 0x180 DUP9 PUSH1 0xE0 DUP10 ADD MLOAD PUSH1 0xA DUP6 ADD SSTORE PUSH1 0xE0 DUP2 ADD MLOAD PUSH1 0xB DUP6 ADD SSTORE PUSH2 0x100 DUP2 ADD MLOAD PUSH1 0xC DUP6 ADD SSTORE PUSH1 0xD DUP5 ADD PUSH1 0x1 DUP1 PUSH1 0xA0 SHL SUB PUSH2 0x120 DUP4 ADD MLOAD AND PUSH1 0x1 PUSH1 0x1 PUSH1 0x60 SHL SUB PUSH1 0xA0 SHL DUP3 SLOAD AND OR SWAP1 SSTORE PUSH1 0xE DUP5 ADD PUSH1 0x1 DUP1 PUSH1 0xA0 SHL SUB PUSH2 0x140 DUP4 ADD MLOAD AND PUSH1 0x1 PUSH1 0x1 PUSH1 0x60 SHL SUB PUSH1 0xA0 SHL DUP3 SLOAD AND OR SWAP1 SSTORE PUSH2 0x160 DUP2 ADD MLOAD PUSH1 0xF DUP6 ADD SSTORE ADD MLOAD ISZERO ISZERO SWAP2 ADD SWAP1 PUSH1 0xFF DUP1 NOT DUP4 SLOAD AND SWAP2 ISZERO ISZERO AND OR SWAP1 SSTORE JUMP JUMPDEST PUSH1 0x1 SLOAD PUSH1 0x40 DUP1 MLOAD PUSH1 0xFF SWAP1 SWAP3 AND DUP1 DUP4 MSTORE CALLER PUSH1 0x20 DUP1 DUP6 ADD SWAP2 SWAP1 SWAP2 MSTORE SWAP3 SWAP1 SWAP2 PUSH32 0x3235649627BE07E9DE041F17EFA15EEE442073C363EE0B78F6860A2EDCCD72B1 SWAP2 LOG1 PUSH1 0x40 MLOAD SWAP1 DUP2 MSTORE RETURN JUMPDEST SWAP6 PUSH1 0x0 SWAP7 PUSH1 0x0 JUMPDEST DUP2 DUP5 SUB DUP2 LT PUSH2 0x200D JUMPI POP POP POP PUSH1 0x5 SHR ADD SWAP4 SWAP1 SWAP4 SSTORE PUSH2 0x1F9C SWAP3 DUP2 PUSH1 0xE0 PUSH2 0x180 PUSH2 0x1F0B JUMP JUMPDEST SWAP1 SWAP2 SWAP8 PUSH1 0x20 PUSH2 0x2033 PUSH1 0x1 SWAP3 DUP5 PUSH1 0xFF DUP14 MLOAD AND SWAP2 SWAP1 PUSH1 0xFF DUP1 SWAP2 PUSH1 0x3 SHL SWAP4 AND DUP4 SHL SWAP3 SHL NOT AND OR SWAP1 JUMP JUMPDEST SWAP10 ADD SWAP3 SWAP2 ADD PUSH2 0x1FEA JUMP JUMPDEST PUSH1 0x0 DUP1 JUMPDEST PUSH1 0x20 DUP2 LT PUSH2 0x2056 JUMPI POP DUP4 DUP3 ADD SSTORE PUSH1 0x1 ADD PUSH2 0x1EF3 JUMP JUMPDEST DUP9 MLOAD SWAP1 SWAP9 SWAP2 PUSH1 0x1 SWAP2 PUSH1 0x20 SWAP2 PUSH1 0xFF PUSH1 0x3 DUP14 SWAP1 SHL DUP2 DUP2 SHL NOT SWAP1 SWAP3 AND SWAP3 AND SWAP1 SHL OR SWAP3 ADD SWAP9 ADD PUSH2 0x2041 JUMP JUMPDEST DUP1 MLOAD DUP1 MLOAD SWAP1 PUSH1 0x1 PUSH1 0x1 PUSH1 0x40 SHL SUB DUP3 GT PUSH2 0x8FF JUMPI PUSH1 0x20 SWAP1 PUSH2 0x209D DUP4 DUP9 PUSH2 0x310D JUMP JUMPDEST ADD SWAP1 DUP6 PUSH1 0x0 MSTORE PUSH1 0x20 PUSH1 0x0 KECCAK256 SWAP1 PUSH1 0x0 JUMPDEST DUP2 PUSH1 0x5 SHR DUP2 LT PUSH2 0x212E JUMPI POP PUSH1 0x1F NOT DUP2 AND SWAP3 DUP4 DUP3 SUB PUSH2 0x20DB JUMPI JUMPDEST POP POP POP POP PUSH1 0x1 PUSH1 0x20 DUP2 SWAP3 ADD SWAP5 ADD SWAP2 ADD SWAP1 SWAP3 PUSH2 0x1E6B JUMP JUMPDEST PUSH1 0x0 SWAP4 PUSH1 0x0 SWAP1 JUMPDEST DUP1 DUP5 SUB DUP3 LT PUSH2 0x20FE JUMPI POP POP POP PUSH1 0x5 SHR ADD SSTORE PUSH1 0x1 PUSH1 0x20 DUP2 DUP11 PUSH2 0x20C5 JUMP JUMPDEST SWAP1 SWAP2 SWAP5 PUSH1 0x20 PUSH2 0x2124 PUSH1 0x1 SWAP3 DUP6 PUSH1 0xFF DUP11 MLOAD AND SWAP2 SWAP1 PUSH1 0xFF DUP1 SWAP2 PUSH1 0x3 SHL SWAP4 AND DUP4 SHL SWAP3 SHL NOT AND OR SWAP1 JUMP JUMPDEST SWAP7 ADD SWAP3 ADD SWAP1 PUSH2 0x20E2 JUMP JUMPDEST PUSH1 0x0 DUP1 JUMPDEST PUSH1 0x20 DUP2 LT PUSH2 0x2147 JUMPI POP DUP4 DUP3 ADD SSTORE PUSH1 0x1 ADD PUSH2 0x20AC JUMP JUMPDEST DUP6 MLOAD SWAP1 SWAP6 SWAP2 PUSH1 0x1 SWAP2 PUSH1 0x20 SWAP2 PUSH1 0xFF PUSH1 0x3 DUP11 SWAP1 SHL DUP2 DUP2 SHL NOT SWAP1 SWAP3 AND SWAP3 AND SWAP1 SHL OR SWAP3 ADD SWAP6 ADD PUSH2 0x2132 JUMP JUMPDEST PUSH1 0x5 DUP6 ADD PUSH1 0x0 MSTORE PUSH1 0x20 PUSH1 0x0 KECCAK256 SWAP1 DUP4 DUP3 ADD JUMPDEST DUP2 DUP4 ADD DUP2 LT PUSH2 0x218F JUMPI POP POP PUSH2 0x1E55 JUMP JUMPDEST DUP1 PUSH2 0x219B PUSH1 0x1 SWAP3 PUSH2 0x30CF JUMP JUMPDEST ADD PUSH2 0x217F JUMP JUMPDEST DUP1 MLOAD DUP1 MLOAD SWAP1 PUSH1 0x1 PUSH1 0x1 PUSH1 0x40 SHL SUB DUP3 GT PUSH2 0x8FF JUMPI PUSH1 0x20 SWAP1 PUSH2 0x21C1 DUP4 DUP9 PUSH2 0x310D JUMP JUMPDEST ADD SWAP1 DUP6 PUSH1 0x0 MSTORE PUSH1 0x20 PUSH1 0x0 KECCAK256 SWAP1 PUSH1 0x0 JUMPDEST DUP2 PUSH1 0x5 SHR DUP2 LT PUSH2 0x2252 JUMPI POP PUSH1 0x1F NOT DUP2 AND SWAP3 DUP4 DUP3 SUB PUSH2 0x21FF JUMPI JUMPDEST POP POP POP POP PUSH1 0x1 PUSH1 0x20 DUP2 SWAP3 ADD SWAP5 ADD SWAP2 ADD SWAP1 SWAP3 PUSH2 0x1E24 JUMP JUMPDEST PUSH1 0x0 SWAP4 PUSH1 0x0 SWAP1 JUMPDEST DUP1 DUP5 SUB DUP3 LT PUSH2 0x2222 JUMPI POP POP POP PUSH1 0x5 SHR ADD SSTORE PUSH1 0x1 PUSH1 0x20 DUP2 DUP11 PUSH2 0x21E9 JUMP JUMPDEST SWAP1 SWAP2 SWAP5 PUSH1 0x20 PUSH2 0x2248 PUSH1 0x1 SWAP3 DUP6 PUSH1 0xFF DUP11 MLOAD AND SWAP2 SWAP1 PUSH1 0xFF DUP1 SWAP2 PUSH1 0x3 SHL SWAP4 AND DUP4 SHL SWAP3 SHL NOT AND OR SWAP1 JUMP JUMPDEST SWAP7 ADD SWAP3 ADD SWAP1 PUSH2 0x2206 JUMP JUMPDEST PUSH1 0x0 DUP1 JUMPDEST PUSH1 0x20 DUP2 LT PUSH2 0x226B JUMPI POP DUP4 DUP3 ADD SSTORE PUSH1 0x1 ADD PUSH2 0x21D0 JUMP JUMPDEST DUP6 MLOAD SWAP1 SWAP6 SWAP2 PUSH1 0x1 SWAP2 PUSH1 0x20 SWAP2 PUSH1 0xFF PUSH1 0x3 DUP11 SWAP1 SHL DUP2 DUP2 SHL NOT SWAP1 SWAP3 AND SWAP3 AND SWAP1 SHL OR SWAP3 ADD SWAP6 ADD PUSH2 0x2256 JUMP JUMPDEST PUSH1 0x4 DUP6 ADD PUSH1 0x0 MSTORE PUSH1 0x20 PUSH1 0x0 KECCAK256 SWAP1 DUP4 DUP3 ADD JUMPDEST DUP2 DUP4 ADD DUP2 LT PUSH2 0x22B3 JUMPI POP POP PUSH2 0x1E0E JUMP JUMPDEST DUP1 PUSH2 0x22BF PUSH1 0x1 SWAP3 PUSH2 0x30CF JUMP JUMPDEST ADD PUSH2 0x22A3 JUMP JUMPDEST PUSH2 0x1C28 JUMP JUMPDEST PUSH1 0x40 MLOAD PUSH3 0x461BCD PUSH1 0xE5 SHL DUP2 MSTORE PUSH1 0x20 PUSH1 0x4 DUP3 ADD MSTORE PUSH1 0xE PUSH1 0x24 DUP3 ADD MSTORE PUSH14 0x14DD185AD9481C995C5D5A5C9959 PUSH1 0x92 SHL PUSH1 0x44 DUP3 ADD MSTORE PUSH1 0x64 SWAP1 REVERT JUMPDEST CALLVALUE PUSH2 0x294 JUMPI PUSH1 0x20 CALLDATASIZE PUSH1 0x3 NOT ADD SLT PUSH2 0x294 JUMPI PUSH1 0xFF PUSH2 0x231B PUSH2 0x2E99 JUMP JUMPDEST AND PUSH1 0x0 MSTORE PUSH1 0x0 PUSH1 0x20 MSTORE PUSH1 0x40 PUSH1 0x0 KECCAK256 PUSH1 0x1 DUP1 PUSH1 0xA0 SHL SUB PUSH1 0xE DUP3 ADD SLOAD AND SWAP1 DUP2 CALLER SUB PUSH2 0x23DE JUMPI PUSH1 0x1 PUSH2 0x234E PUSH1 0xF DUP4 ADD SLOAD TIMESTAMP PUSH2 0x3323 JUMP JUMPDEST GT ISZERO PUSH2 0x2385 JUMPI PUSH1 0x0 DUP1 DUP1 SWAP4 PUSH1 0xC DUP5 PUSH1 0x10 DUP5 SWAP7 ADD PUSH1 0xFF NOT DUP2 SLOAD AND SWAP1 SSTORE ADD SLOAD SWAP1 DUP3 DUP3 ISZERO PUSH2 0x237C JUMPI JUMPDEST CALL ISZERO PUSH2 0x19B JUMPI STOP JUMPDEST POP PUSH2 0x8FC PUSH2 0x2374 JUMP JUMPDEST PUSH1 0x40 MLOAD PUSH3 0x461BCD PUSH1 0xE5 SHL DUP2 MSTORE PUSH1 0x20 PUSH1 0x4 DUP3 ADD MSTORE PUSH1 0x2B PUSH1 0x24 DUP3 ADD MSTORE PUSH32 0x5468652077696E646F7720746F206163637573652041464B206973206E6F7420 PUSH1 0x44 DUP3 ADD MSTORE PUSH11 0x1E595D081BDC1C195B9959 PUSH1 0xAA SHL PUSH1 0x64 DUP3 ADD MSTORE PUSH1 0x84 SWAP1 REVERT JUMPDEST PUSH1 0x40 MLOAD PUSH3 0x461BCD PUSH1 0xE5 SHL DUP2 MSTORE PUSH1 0x20 PUSH1 0x4 DUP3 ADD MSTORE PUSH1 0x17 PUSH1 0x24 DUP3 ADD MSTORE PUSH32 0x4F6E6C7920616363757365722063616E20766572696679000000000000000000 PUSH1 0x44 DUP3 ADD MSTORE PUSH1 0x64 SWAP1 REVERT JUMPDEST CALLVALUE PUSH2 0x294 JUMPI PUSH2 0x2431 CALLDATASIZE PUSH2 0x2EA9 JUMP JUMPDEST SWAP1 PUSH1 0x6 PUSH1 0xFF PUSH1 0x1 SLOAD AND PUSH2 0x244A PUSH1 0xFF DUP7 AND DUP1 SWAP3 LT ISZERO PUSH2 0x2F02 JUMP JUMPDEST PUSH2 0x2456 PUSH1 0x4 DUP6 EQ PUSH2 0x2F40 JUMP JUMPDEST DUP1 PUSH1 0x0 MSTORE PUSH1 0x0 PUSH1 0x20 MSTORE PUSH2 0x2473 PUSH1 0xFF PUSH1 0x10 PUSH1 0x40 PUSH1 0x0 KECCAK256 ADD SLOAD AND PUSH2 0x2F7D JUMP JUMPDEST DUP1 PUSH1 0x0 MSTORE PUSH1 0x0 PUSH1 0x20 MSTORE PUSH2 0x2498 PUSH1 0x40 PUSH1 0x0 KECCAK256 PUSH1 0x1 DUP1 PUSH1 0xA0 SHL SUB SWAP4 DUP5 SWAP2 ADD SLOAD AND CALLER EQ PUSH2 0x2FC9 JUMP JUMPDEST DUP1 PUSH1 0x0 MSTORE PUSH1 0x0 PUSH1 0x20 MSTORE PUSH2 0x24B6 DUP3 PUSH1 0xD PUSH1 0x40 PUSH1 0x0 KECCAK256 ADD SLOAD AND CALLER EQ PUSH2 0x3021 JUMP JUMPDEST PUSH1 0x0 MSTORE PUSH1 0x0 PUSH1 0x20 MSTORE PUSH1 0x40 PUSH1 0x0 KECCAK256 SWAP4 PUSH2 0x24D5 PUSH1 0xFF PUSH1 0x3 DUP8 ADD SLOAD AND ISZERO PUSH2 0x305D JUMP JUMPDEST PUSH1 0x4 DUP6 ADD SWAP5 PUSH1 0x5 DUP7 SLOAD LT ISZERO PUSH2 0x2575 JUMPI PUSH1 0xD DUP4 PUSH2 0x252D DUP8 DUP8 PUSH32 0xD43D417FEE5F971FBE2D9FAE7AB6CE107EA8C41A1C7FE584FCFC68BD486565F2 SWAP11 PUSH2 0x3B1 SWAP9 PUSH1 0xE DUP9 ADD SLOAD AND DUP1 CALLER EQ ISZERO SWAP1 DUP2 PUSH2 0x256B JUMPI JUMPDEST POP PUSH2 0x255D JUMPI PUSH2 0x3262 JUMP JUMPDEST TIMESTAMP PUSH1 0xA DUP5 ADD SSTORE PUSH1 0x7 DUP4 ADD SLOAD AND SWAP2 ADD SWAP1 PUSH1 0x1 PUSH1 0x1 PUSH1 0x60 SHL SUB PUSH1 0xA0 SHL DUP3 SLOAD AND OR SWAP1 SSTORE PUSH1 0x40 MLOAD SWAP4 DUP5 SWAP4 TIMESTAMP SWAP3 CALLER SWAP1 DUP7 PUSH2 0x32F0 JUMP JUMPDEST PUSH2 0x2566 DUP8 PUSH2 0x33D8 JUMP JUMPDEST PUSH2 0x3262 JUMP JUMPDEST SWAP1 POP ISZERO ISZERO DUP14 PUSH2 0x2523 JUMP JUMPDEST PUSH1 0x40 MLOAD PUSH3 0x461BCD PUSH1 0xE5 SHL DUP2 MSTORE PUSH1 0x20 PUSH1 0x4 DUP3 ADD MSTORE PUSH1 0x13 PUSH1 0x24 DUP3 ADD MSTORE PUSH19 0x13585E0819DD595CDCD95CC81C995858DA1959 PUSH1 0x6A SHL PUSH1 0x44 DUP3 ADD MSTORE PUSH1 0x64 SWAP1 REVERT JUMPDEST CALLVALUE PUSH2 0x294 JUMPI PUSH1 0x20 CALLDATASIZE PUSH1 0x3 NOT ADD SLT PUSH2 0x294 JUMPI PUSH1 0x4 CALLDATALOAD PUSH1 0x0 MSTORE PUSH1 0x0 PUSH1 0x20 MSTORE PUSH1 0xFF PUSH1 0x40 PUSH1 0x0 KECCAK256 PUSH1 0x1 DUP1 PUSH1 0xA0 SHL SUB DUP2 SLOAD AND PUSH1 0x1 DUP3 ADD SLOAD SWAP2 PUSH1 0x1 DUP1 PUSH1 0xA0 SHL SUB PUSH1 0x2 DUP3 ADD SLOAD AND SWAP1 PUSH2 0x25FB PUSH1 0x80 PUSH2 0x279B JUMP JUMPDEST DUP5 PUSH1 0x3 DUP3 ADD SLOAD AND ISZERO ISZERO PUSH1 0x80 MSTORE PUSH2 0x2613 PUSH1 0x4 DUP3 ADD PUSH2 0x2DB0 JUMP JUMPDEST PUSH1 0xA0 MSTORE PUSH2 0x2622 PUSH1 0x5 DUP3 ADD PUSH2 0x2DB0 JUMP JUMPDEST PUSH1 0xC0 MSTORE PUSH1 0x6 DUP2 ADD SLOAD PUSH1 0x1 PUSH1 0x1 PUSH1 0xA0 SHL SUB SWAP1 DUP2 AND PUSH1 0xE0 MSTORE PUSH1 0x7 DUP3 ADD SLOAD AND PUSH2 0x100 MSTORE PUSH1 0x8 DUP2 ADD SLOAD PUSH2 0x120 MSTORE PUSH2 0x2657 PUSH1 0x9 DUP3 ADD PUSH2 0x2825 JUMP JUMPDEST PUSH1 0xC0 PUSH1 0x80 ADD MSTORE PUSH1 0xA DUP2 ADD SLOAD PUSH1 0xE0 PUSH1 0x80 ADD MSTORE PUSH1 0xB DUP2 ADD SLOAD SWAP3 PUSH1 0xC DUP3 ADD SLOAD PUSH1 0x1 DUP1 PUSH1 0xA0 SHL SUB PUSH1 0xD DUP5 ADD SLOAD AND SWAP1 PUSH1 0x1 DUP1 PUSH1 0xA0 SHL SUB PUSH1 0xE DUP6 ADD SLOAD AND SWAP3 DUP9 PUSH1 0x10 PUSH1 0xF DUP8 ADD SLOAD SWAP7 ADD SLOAD AND SWAP6 PUSH1 0x40 MLOAD SWAP10 DUP11 SWAP10 PUSH2 0x1A0 SWAP4 DUP12 MSTORE PUSH1 0x1 DUP1 PUSH1 0xA0 SHL SUB DUP2 AND PUSH1 0x20 DUP13 ADD MSTORE DUP2 DUP2 PUSH1 0xA0 SHR AND PUSH1 0x40 DUP13 ADD MSTORE DUP2 DUP2 PUSH1 0xA8 SHR AND PUSH1 0x60 DUP13 ADD MSTORE PUSH1 0xB0 SHR AND ISZERO ISZERO PUSH1 0x80 DUP11 ADD MSTORE PUSH1 0xA0 DUP10 ADD MSTORE DUP1 PUSH1 0xC0 DUP10 ADD MSTORE PUSH1 0x80 MLOAD ISZERO ISZERO SWAP1 DUP9 ADD MSTORE PUSH1 0x20 PUSH1 0x80 ADD MLOAD PUSH2 0x2768 PUSH2 0x270D PUSH2 0x100 SWAP3 DUP4 PUSH2 0x1C0 DUP13 ADD MSTORE PUSH2 0x2A0 DUP12 ADD SWAP1 PUSH2 0x2E3C JUMP JUMPDEST PUSH1 0xC0 MLOAD PUSH2 0x19F NOT DUP12 DUP4 SUB DUP2 ADD PUSH2 0x1E0 DUP14 ADD MSTORE SWAP2 PUSH2 0x2729 SWAP2 PUSH2 0x2E3C JUMP JUMPDEST PUSH1 0xE0 MLOAD PUSH1 0x1 PUSH1 0x1 PUSH1 0xA0 SHL SUB SWAP1 DUP2 AND PUSH2 0x200 DUP14 ADD MSTORE PUSH2 0x100 MLOAD AND PUSH2 0x220 DUP13 ADD MSTORE PUSH2 0x120 MLOAD PUSH2 0x240 DUP13 ADD MSTORE PUSH2 0x140 MLOAD DUP12 DUP3 SUB SWAP1 SWAP3 ADD PUSH2 0x260 DUP13 ADD MSTORE SWAP1 PUSH2 0x2E05 JUMP JUMPDEST SWAP7 PUSH1 0xE0 PUSH1 0x80 ADD MLOAD PUSH2 0x280 DUP11 ADD MSTORE PUSH1 0xE0 DUP10 ADD MSTORE DUP8 ADD MSTORE PUSH2 0x120 DUP7 ADD MSTORE PUSH2 0x140 DUP6 ADD MSTORE PUSH2 0x160 DUP5 ADD MSTORE ISZERO ISZERO PUSH2 0x180 DUP4 ADD MSTORE SUB SWAP1 RETURN JUMPDEST PUSH2 0x100 DUP2 ADD SWAP1 DUP2 LT PUSH1 0x1 PUSH1 0x1 PUSH1 0x40 SHL SUB DUP3 GT OR PUSH2 0x8FF JUMPI PUSH1 0x40 MSTORE JUMP JUMPDEST PUSH1 0x20 DUP2 ADD SWAP1 DUP2 LT PUSH1 0x1 PUSH1 0x1 PUSH1 0x40 SHL SUB DUP3 GT OR PUSH2 0x8FF JUMPI PUSH1 0x40 MSTORE JUMP JUMPDEST PUSH1 0x60 DUP2 ADD SWAP1 DUP2 LT PUSH1 0x1 PUSH1 0x1 PUSH1 0x40 SHL SUB DUP3 GT OR PUSH2 0x8FF JUMPI PUSH1 0x40 MSTORE JUMP JUMPDEST SWAP1 PUSH1 0x1F DUP1 NOT SWAP2 ADD AND DUP2 ADD SWAP1 DUP2 LT PUSH1 0x1 PUSH1 0x1 PUSH1 0x40 SHL SUB DUP3 GT OR PUSH2 0x8FF JUMPI PUSH1 0x40 MSTORE JUMP JUMPDEST PUSH1 0x1 PUSH1 0x1 PUSH1 0x40 SHL SUB DUP2 GT PUSH2 0x8FF JUMPI PUSH1 0x5 SHL PUSH1 0x20 ADD SWAP1 JUMP JUMPDEST SWAP1 PUSH1 0x40 SWAP2 PUSH1 0x40 MLOAD DUP1 SWAP4 DUP3 SLOAD SWAP3 DUP4 DUP4 MSTORE PUSH1 0x20 SWAP2 DUP3 DUP5 ADD SWAP2 PUSH1 0x0 MSTORE DUP3 PUSH1 0x0 KECCAK256 SWAP5 PUSH1 0x0 SWAP2 JUMPDEST DUP2 PUSH1 0x1F DUP5 ADD LT PUSH2 0x2C17 JUMPI POP PUSH2 0x2962 SWAP6 SLOAD SWAP2 DUP5 DUP3 DUP3 LT PUSH2 0x2C04 JUMPI JUMPDEST DUP3 DUP3 LT PUSH2 0x2BEE JUMPI JUMPDEST DUP3 DUP3 LT PUSH2 0x2BD8 JUMPI JUMPDEST DUP3 DUP3 LT PUSH2 0x2BC2 JUMPI JUMPDEST DUP3 DUP3 LT PUSH2 0x2BAD JUMPI JUMPDEST DUP3 DUP3 LT PUSH2 0x2B97 JUMPI JUMPDEST DUP3 DUP3 LT PUSH2 0x2B81 JUMPI JUMPDEST DUP3 DUP3 LT PUSH2 0x2B6B JUMPI JUMPDEST DUP3 DUP3 LT PUSH2 0x2B55 JUMPI JUMPDEST DUP3 DUP3 LT PUSH2 0x2B3F JUMPI JUMPDEST DUP3 DUP3 LT PUSH2 0x2B29 JUMPI JUMPDEST DUP3 DUP3 LT PUSH2 0x2B13 JUMPI JUMPDEST DUP3 DUP3 LT PUSH2 0x2AFD JUMPI JUMPDEST DUP3 DUP3 LT PUSH2 0x2AE7 JUMPI JUMPDEST DUP3 DUP3 LT PUSH2 0x2AD1 JUMPI JUMPDEST DUP3 DUP3 LT PUSH2 0x2ABB JUMPI JUMPDEST DUP3 DUP3 LT PUSH2 0x2AA5 JUMPI JUMPDEST DUP3 DUP3 LT PUSH2 0x2A8F JUMPI JUMPDEST DUP3 DUP3 LT PUSH2 0x2A79 JUMPI JUMPDEST DUP3 DUP3 LT PUSH2 0x2A63 JUMPI JUMPDEST DUP3 DUP3 LT PUSH2 0x2A4D JUMPI JUMPDEST DUP3 DUP3 LT PUSH2 0x2A37 JUMPI JUMPDEST DUP3 DUP3 LT PUSH2 0x2A21 JUMPI JUMPDEST DUP3 DUP3 LT PUSH2 0x2A0B JUMPI JUMPDEST DUP3 DUP3 LT PUSH2 0x29F5 JUMPI JUMPDEST DUP3 DUP3 LT PUSH2 0x29DF JUMPI JUMPDEST DUP3 DUP3 LT PUSH2 0x29C9 JUMPI JUMPDEST DUP3 DUP3 LT PUSH2 0x29B3 JUMPI JUMPDEST DUP3 DUP3 LT PUSH2 0x299D JUMPI JUMPDEST DUP3 DUP3 LT PUSH2 0x2987 JUMPI JUMPDEST DUP3 DUP3 LT PUSH2 0x2971 JUMPI JUMPDEST POP LT PUSH2 0x2964 JUMPI JUMPDEST POP SWAP1 POP SUB DUP4 PUSH2 0x27ED JUMP JUMPDEST JUMP JUMPDEST PUSH1 0xF8 SHR DUP2 MSTORE ADD DUP1 CODESIZE PUSH2 0x2958 JUMP JUMPDEST PUSH1 0x1 SWAP2 SWAP5 PUSH1 0xFF DUP6 PUSH1 0xF0 SHR AND DUP2 MSTORE ADD SWAP4 ADD DUP5 PUSH2 0x2951 JUMP JUMPDEST PUSH1 0x1 SWAP2 SWAP5 PUSH1 0xFF DUP6 PUSH1 0xE8 SHR AND DUP2 MSTORE ADD SWAP4 ADD DUP5 PUSH2 0x2949 JUMP JUMPDEST PUSH1 0x1 SWAP2 SWAP5 PUSH1 0xFF DUP6 PUSH1 0xE0 SHR AND DUP2 MSTORE ADD SWAP4 ADD DUP5 PUSH2 0x2941 JUMP JUMPDEST PUSH1 0x1 SWAP2 SWAP5 PUSH1 0xFF DUP6 PUSH1 0xD8 SHR AND DUP2 MSTORE ADD SWAP4 ADD DUP5 PUSH2 0x2939 JUMP JUMPDEST PUSH1 0x1 SWAP2 SWAP5 PUSH1 0xFF DUP6 PUSH1 0xD0 SHR AND DUP2 MSTORE ADD SWAP4 ADD DUP5 PUSH2 0x2931 JUMP JUMPDEST PUSH1 0x1 SWAP2 SWAP5 PUSH1 0xFF DUP6 PUSH1 0xC8 SHR AND DUP2 MSTORE ADD SWAP4 ADD DUP5 PUSH2 0x2929 JUMP JUMPDEST PUSH1 0x1 SWAP2 SWAP5 PUSH1 0xFF DUP6 PUSH1 0xC0 SHR AND DUP2 MSTORE ADD SWAP4 ADD DUP5 PUSH2 0x2921 JUMP JUMPDEST PUSH1 0x1 SWAP2 SWAP5 PUSH1 0xFF DUP6 PUSH1 0xB8 SHR AND DUP2 MSTORE ADD SWAP4 ADD DUP5 PUSH2 0x2919 JUMP JUMPDEST PUSH1 0x1 SWAP2 SWAP5 PUSH1 0xFF DUP6 PUSH1 0xB0 SHR AND DUP2 MSTORE ADD SWAP4 ADD DUP5 PUSH2 0x2911 JUMP JUMPDEST PUSH1 0x1 SWAP2 SWAP5 PUSH1 0xFF DUP6 PUSH1 0xA8 SHR AND DUP2 MSTORE ADD SWAP4 ADD DUP5 PUSH2 0x2909 JUMP JUMPDEST PUSH1 0x1 SWAP2 SWAP5 PUSH1 0xFF DUP6 PUSH1 0xA0 SHR AND DUP2 MSTORE ADD SWAP4 ADD DUP5 PUSH2 0x2901 JUMP JUMPDEST PUSH1 0x1 SWAP2 SWAP5 PUSH1 0xFF DUP6 PUSH1 0x98 SHR AND DUP2 MSTORE ADD SWAP4 ADD DUP5 PUSH2 0x28F9 JUMP JUMPDEST PUSH1 0x1 SWAP2 SWAP5 PUSH1 0xFF DUP6 PUSH1 0x90 SHR AND DUP2 MSTORE ADD SWAP4 ADD DUP5 PUSH2 0x28F1 JUMP JUMPDEST PUSH1 0x1 SWAP2 SWAP5 PUSH1 0xFF DUP6 PUSH1 0x88 SHR AND DUP2 MSTORE ADD SWAP4 ADD DUP5 PUSH2 0x28E9 JUMP JUMPDEST PUSH1 0x1 SWAP2 SWAP5 PUSH1 0xFF DUP6 PUSH1 0x80 SHR AND DUP2 MSTORE ADD SWAP4 ADD DUP5 PUSH2 0x28E1 JUMP JUMPDEST PUSH1 0x1 SWAP2 SWAP5 PUSH1 0xFF DUP6 PUSH1 0x78 SHR AND DUP2 MSTORE ADD SWAP4 ADD DUP5 PUSH2 0x28D9 JUMP JUMPDEST PUSH1 0x1 SWAP2 SWAP5 PUSH1 0xFF DUP6 PUSH1 0x70 SHR AND DUP2 MSTORE ADD SWAP4 ADD DUP5 PUSH2 0x28D1 JUMP JUMPDEST PUSH1 0x1 SWAP2 SWAP5 PUSH1 0xFF DUP6 PUSH1 0x68 SHR AND DUP2 MSTORE ADD SWAP4 ADD DUP5 PUSH2 0x28C9 JUMP JUMPDEST PUSH1 0x1 SWAP2 SWAP5 PUSH1 0xFF DUP6 PUSH1 0x60 SHR AND DUP2 MSTORE ADD SWAP4 ADD DUP5 PUSH2 0x28C1 JUMP JUMPDEST PUSH1 0x1 SWAP2 SWAP5 PUSH1 0xFF DUP6 PUSH1 0x58 SHR AND DUP2 MSTORE ADD SWAP4 ADD DUP5 PUSH2 0x28B9 JUMP JUMPDEST PUSH1 0x1 SWAP2 SWAP5 PUSH1 0xFF DUP6 PUSH1 0x50 SHR AND DUP2 MSTORE ADD SWAP4 ADD DUP5 PUSH2 0x28B1 JUMP JUMPDEST PUSH1 0x1 SWAP2 SWAP5 PUSH1 0xFF DUP6 PUSH1 0x48 SHR AND DUP2 MSTORE ADD SWAP4 ADD DUP5 PUSH2 0x28A9 JUMP JUMPDEST PUSH1 0x1 SWAP2 SWAP5 PUSH1 0xFF DUP6 PUSH1 0x40 SHR AND DUP2 MSTORE ADD SWAP4 ADD DUP5 PUSH2 0x28A1 JUMP JUMPDEST PUSH1 0x1 SWAP2 SWAP5 PUSH1 0xFF DUP6 PUSH1 0x38 SHR AND DUP2 MSTORE ADD SWAP4 ADD DUP5 PUSH2 0x2899 JUMP JUMPDEST PUSH1 0x1 SWAP2 SWAP5 PUSH1 0xFF DUP6 PUSH1 0x30 SHR AND DUP2 MSTORE ADD SWAP4 ADD DUP5 PUSH2 0x2891 JUMP JUMPDEST PUSH1 0x1 SWAP2 SWAP5 PUSH1 0xFF DUP6 PUSH1 0x28 SHR AND DUP2 MSTORE ADD SWAP4 ADD DUP5 PUSH2 0x2889 JUMP JUMPDEST PUSH1 0x1 SWAP2 SWAP5 PUSH1 0xFF DUP6 DUP4 SHR AND DUP2 MSTORE ADD SWAP4 ADD DUP5 PUSH2 0x2881 JUMP JUMPDEST PUSH1 0x1 SWAP2 SWAP5 PUSH1 0xFF DUP6 PUSH1 0x18 SHR AND DUP2 MSTORE ADD SWAP4 ADD DUP5 PUSH2 0x2879 JUMP JUMPDEST PUSH1 0x1 SWAP2 SWAP5 PUSH1 0xFF DUP6 PUSH1 0x10 SHR AND DUP2 MSTORE ADD SWAP4 ADD DUP5 PUSH2 0x2871 JUMP JUMPDEST PUSH1 0x1 SWAP2 SWAP5 PUSH1 0xFF DUP6 PUSH1 0x8 SHR AND DUP2 MSTORE ADD SWAP4 ADD DUP5 PUSH2 0x2869 JUMP JUMPDEST PUSH1 0x1 SWAP2 SWAP5 PUSH1 0xFF DUP6 AND DUP2 MSTORE ADD SWAP4 ADD DUP5 PUSH2 0x2861 JUMP JUMPDEST SWAP4 SWAP6 SWAP5 POP SWAP2 PUSH1 0x1 PUSH2 0x400 DUP8 SWAP3 DUP8 SLOAD PUSH1 0xFF DUP2 AND DUP3 MSTORE PUSH1 0xFF DUP2 PUSH1 0x8 SHR AND DUP6 DUP4 ADD MSTORE PUSH1 0xFF DUP2 PUSH1 0x10 SHR AND DUP9 DUP4 ADD MSTORE PUSH1 0xFF DUP2 DUP10 DUP3 DUP3 PUSH1 0x60 DUP3 DUP3 PUSH1 0x18 SHR AND DUP2 DUP10 ADD MSTORE DUP3 DUP3 DUP13 DUP3 DUP3 PUSH1 0x80 SWAP3 SHR AND DUP2 DUP13 ADD MSTORE DUP3 DUP3 PUSH1 0xA0 SWAP6 DUP14 DUP8 DUP5 DUP5 PUSH1 0x28 SHR AND SWAP2 ADD MSTORE DUP14 PUSH2 0x100 DUP5 DUP5 PUSH1 0xC0 SWAP14 DUP15 DUP4 DUP4 PUSH1 0x30 SHR AND SWAP1 DUP7 ADD MSTORE DUP3 DUP3 PUSH1 0x38 SHR AND PUSH1 0xE0 DUP7 ADD MSTORE SHR AND SWAP2 ADD MSTORE DUP14 PUSH2 0x120 DUP5 DUP5 PUSH1 0x48 SHR AND SWAP2 ADD MSTORE DUP14 PUSH2 0x140 DUP5 DUP5 PUSH1 0x50 SHR AND SWAP2 ADD MSTORE DUP14 PUSH2 0x160 DUP5 DUP5 PUSH1 0x58 SHR AND SWAP2 ADD MSTORE SHR AND PUSH2 0x180 DUP13 ADD MSTORE DUP3 DUP3 PUSH1 0x68 SHR AND PUSH2 0x1A0 DUP13 ADD MSTORE DUP3 DUP3 PUSH1 0x70 SHR AND PUSH2 0x1C0 DUP13 ADD MSTORE DUP3 DUP3 PUSH1 0x78 SHR AND PUSH2 0x1E0 DUP13 ADD MSTORE SHR AND PUSH2 0x200 DUP10 ADD MSTORE DUP3 DUP3 PUSH1 0x88 SHR AND PUSH2 0x220 DUP10 ADD MSTORE DUP3 DUP3 PUSH1 0x90 SHR AND PUSH2 0x240 DUP10 ADD MSTORE DUP3 DUP3 PUSH1 0x98 SHR AND PUSH2 0x260 DUP10 ADD MSTORE SHR AND PUSH2 0x280 DUP7 ADD MSTORE DUP3 DUP3 PUSH1 0xA8 SHR AND PUSH2 0x2A0 DUP7 ADD MSTORE DUP3 DUP3 PUSH1 0xB0 SHR AND PUSH2 0x2C0 DUP7 ADD MSTORE DUP3 DUP3 PUSH1 0xB8 SHR AND PUSH2 0x2E0 DUP7 ADD MSTORE SHR AND PUSH2 0x300 DUP4 ADD MSTORE PUSH1 0xFF DUP2 PUSH1 0xC8 SHR AND PUSH2 0x320 DUP4 ADD MSTORE PUSH1 0xFF DUP2 PUSH1 0xD0 SHR AND PUSH2 0x340 DUP4 ADD MSTORE PUSH1 0xFF DUP2 PUSH1 0xD8 SHR AND PUSH2 0x360 DUP4 ADD MSTORE PUSH1 0xFF DUP2 PUSH1 0xE0 SHR AND PUSH2 0x380 DUP4 ADD MSTORE PUSH1 0xFF DUP2 PUSH1 0xE8 SHR AND PUSH2 0x3A0 DUP4 ADD MSTORE PUSH1 0xFF DUP2 PUSH1 0xF0 SHR AND PUSH2 0x3C0 DUP4 ADD MSTORE PUSH1 0xF8 SHR PUSH2 0x3E0 DUP3 ADD MSTORE ADD SWAP6 ADD SWAP2 ADD SWAP1 SWAP5 SWAP3 SWAP2 DUP8 SWAP5 SWAP3 PUSH2 0x2847 JUMP JUMPDEST SWAP1 DUP2 SLOAD PUSH2 0x2DBC DUP2 PUSH2 0x280E JUMP JUMPDEST SWAP3 PUSH2 0x2DCA PUSH1 0x40 MLOAD SWAP5 DUP6 PUSH2 0x27ED JUMP JUMPDEST DUP2 DUP5 MSTORE PUSH1 0x0 SWAP1 DUP2 MSTORE PUSH1 0x20 DUP1 DUP3 KECCAK256 DUP2 DUP7 ADD JUMPDEST DUP5 DUP5 LT PUSH2 0x2DE9 JUMPI POP POP POP POP POP JUMP JUMPDEST PUSH1 0x1 DUP4 DUP2 SWAP3 PUSH2 0x2DF7 DUP6 PUSH2 0x2825 JUMP JUMPDEST DUP2 MSTORE ADD SWAP3 ADD SWAP4 ADD SWAP3 SWAP1 PUSH2 0x2DDB JUMP JUMPDEST SWAP1 DUP2 MLOAD DUP1 DUP3 MSTORE PUSH1 0x20 DUP1 DUP1 SWAP4 ADD SWAP4 ADD SWAP2 PUSH1 0x0 JUMPDEST DUP3 DUP2 LT PUSH2 0x2E25 JUMPI POP POP POP POP SWAP1 JUMP JUMPDEST DUP4 MLOAD PUSH1 0xFF AND DUP6 MSTORE SWAP4 DUP2 ADD SWAP4 SWAP3 DUP2 ADD SWAP3 PUSH1 0x1 ADD PUSH2 0x2E17 JUMP JUMPDEST SWAP1 DUP1 DUP3 MLOAD SWAP1 DUP2 DUP2 MSTORE PUSH1 0x20 DUP1 SWAP2 ADD SWAP3 PUSH1 0x20 DUP1 DUP5 PUSH1 0x5 SHL DUP4 ADD ADD SWAP6 ADD SWAP4 PUSH1 0x0 SWAP2 JUMPDEST DUP5 DUP4 LT PUSH2 0x2E6B JUMPI POP POP POP POP POP POP SWAP1 JUMP JUMPDEST SWAP1 SWAP2 SWAP3 SWAP4 SWAP5 SWAP6 DUP5 DUP1 PUSH2 0x2E89 PUSH1 0x1 SWAP4 PUSH1 0x1F NOT DUP7 DUP3 SUB ADD DUP8 MSTORE DUP11 MLOAD PUSH2 0x2E05 JUMP JUMPDEST SWAP9 ADD SWAP4 ADD SWAP4 ADD SWAP2 SWAP5 SWAP4 SWAP3 SWAP1 PUSH2 0x2E5B JUMP JUMPDEST PUSH1 0x4 CALLDATALOAD SWAP1 PUSH1 0xFF DUP3 AND DUP3 SUB PUSH2 0x294 JUMPI JUMP JUMPDEST PUSH1 0x40 PUSH1 0x3 NOT DUP3 ADD SLT PUSH2 0x294 JUMPI PUSH1 0x4 CALLDATALOAD PUSH1 0xFF DUP2 AND DUP2 SUB PUSH2 0x294 JUMPI SWAP2 PUSH1 0x24 CALLDATALOAD PUSH1 0x1 PUSH1 0x1 PUSH1 0x40 SHL SUB SWAP3 DUP4 DUP3 GT PUSH2 0x294 JUMPI DUP1 PUSH1 0x23 DUP4 ADD SLT ISZERO PUSH2 0x294 JUMPI DUP2 PUSH1 0x4 ADD CALLDATALOAD SWAP4 DUP5 GT PUSH2 0x294 JUMPI PUSH1 0x24 DUP5 PUSH1 0x5 SHL DUP4 ADD ADD GT PUSH2 0x294 JUMPI PUSH1 0x24 ADD SWAP2 SWAP1 JUMP JUMPDEST ISZERO PUSH2 0x2F09 JUMPI JUMP JUMPDEST PUSH1 0x40 MLOAD PUSH3 0x461BCD PUSH1 0xE5 SHL DUP2 MSTORE PUSH1 0x20 PUSH1 0x4 DUP3 ADD MSTORE PUSH1 0xF PUSH1 0x24 DUP3 ADD MSTORE PUSH15 0x125B9D985B1A590819D85B59481A59 PUSH1 0x8A SHL PUSH1 0x44 DUP3 ADD MSTORE PUSH1 0x64 SWAP1 REVERT JUMPDEST ISZERO PUSH2 0x2F47 JUMPI JUMP JUMPDEST PUSH1 0x40 MLOAD PUSH3 0x461BCD PUSH1 0xE5 SHL DUP2 MSTORE PUSH1 0x20 PUSH1 0x4 DUP3 ADD MSTORE PUSH1 0xE PUSH1 0x24 DUP3 ADD MSTORE PUSH14 0x13195B99DD1A081A5B9D985B1A59 PUSH1 0x92 SHL PUSH1 0x44 DUP3 ADD MSTORE PUSH1 0x64 SWAP1 REVERT JUMPDEST ISZERO PUSH2 0x2F84 JUMPI JUMP JUMPDEST PUSH1 0x40 MLOAD PUSH3 0x461BCD PUSH1 0xE5 SHL DUP2 MSTORE PUSH1 0x20 PUSH1 0x4 DUP3 ADD MSTORE PUSH1 0x17 PUSH1 0x24 DUP3 ADD MSTORE PUSH32 0x47616D65206E6F742061637469766520616E796D6F7265000000000000000000 PUSH1 0x44 DUP3 ADD MSTORE PUSH1 0x64 SWAP1 REVERT JUMPDEST ISZERO PUSH2 0x2FD0 JUMPI JUMP JUMPDEST PUSH1 0x40 MLOAD PUSH3 0x461BCD PUSH1 0xE5 SHL DUP2 MSTORE PUSH1 0x20 PUSH1 0x4 DUP3 ADD MSTORE PUSH1 0x24 DUP1 DUP3 ADD MSTORE PUSH32 0x456974686572206E6F7420796F75207475726E2C206F72206E6F74206120706C PUSH1 0x44 DUP3 ADD MSTORE PUSH4 0x30BCB2B9 PUSH1 0xE1 SHL PUSH1 0x64 DUP3 ADD MSTORE PUSH1 0x84 SWAP1 REVERT JUMPDEST ISZERO PUSH2 0x3028 JUMPI JUMP JUMPDEST PUSH1 0x40 MLOAD PUSH3 0x461BCD PUSH1 0xE5 SHL DUP2 MSTORE PUSH1 0x20 PUSH1 0x4 DUP3 ADD MSTORE PUSH1 0xD PUSH1 0x24 DUP3 ADD MSTORE PUSH13 0x4E6F7420796F757220706C6179 PUSH1 0x98 SHL PUSH1 0x44 DUP3 ADD MSTORE PUSH1 0x64 SWAP1 REVERT JUMPDEST ISZERO PUSH2 0x3064 JUMPI JUMP JUMPDEST PUSH1 0x40 MLOAD PUSH3 0x461BCD PUSH1 0xE5 SHL DUP2 MSTORE PUSH1 0x20 PUSH1 0x4 DUP3 ADD MSTORE PUSH1 0x15 PUSH1 0x24 DUP3 ADD MSTORE PUSH21 0x151D5C9B88185B1C9958591E48199A5B9A5CDA1959 PUSH1 0x5A SHL PUSH1 0x44 DUP3 ADD MSTORE PUSH1 0x64 SWAP1 REVERT JUMPDEST DUP1 SLOAD DUP3 LT ISZERO PUSH2 0x30B9 JUMPI PUSH1 0x0 MSTORE PUSH1 0x20 PUSH1 0x0 KECCAK256 ADD SWAP1 PUSH1 0x0 SWAP1 JUMP JUMPDEST PUSH4 0x4E487B71 PUSH1 0xE0 SHL PUSH1 0x0 MSTORE PUSH1 0x32 PUSH1 0x4 MSTORE PUSH1 0x24 PUSH1 0x0 REVERT JUMPDEST DUP1 SLOAD SWAP1 PUSH1 0x0 SWAP1 PUSH1 0x0 DUP2 SSTORE DUP3 PUSH2 0x30E3 JUMPI POP POP POP JUMP JUMPDEST PUSH1 0x0 MSTORE PUSH1 0x1F PUSH1 0x20 PUSH1 0x0 KECCAK256 SWAP3 ADD PUSH1 0x5 SHR DUP3 ADD SWAP2 JUMPDEST DUP3 DUP2 LT PUSH2 0x3102 JUMPI POP POP POP JUMP JUMPDEST DUP2 DUP2 SSTORE PUSH1 0x1 ADD PUSH2 0x30F6 JUMP JUMPDEST PUSH1 0x1 PUSH1 0x40 SHL DUP3 GT PUSH2 0x8FF JUMPI DUP1 SLOAD DUP3 DUP3 SSTORE DUP1 DUP4 LT PUSH2 0x3129 JUMPI POP POP POP JUMP JUMPDEST PUSH1 0x0 SWAP2 PUSH1 0x0 MSTORE PUSH1 0x1F PUSH1 0x20 PUSH1 0x0 KECCAK256 DUP2 DUP1 DUP7 ADD PUSH1 0x5 SHR DUP3 ADD SWAP4 ADD PUSH1 0x5 SHR ADD SWAP4 AND DUP1 PUSH2 0x3166 JUMPI JUMPDEST POP JUMPDEST DUP3 DUP2 LT PUSH2 0x315B JUMPI POP POP POP JUMP JUMPDEST DUP2 DUP2 SSTORE PUSH1 0x1 ADD PUSH2 0x314F JUMP JUMPDEST PUSH1 0x0 NOT SWAP1 DUP2 DUP4 ADD SWAP2 DUP3 SLOAD SWAP2 PUSH1 0x20 SUB PUSH1 0x3 SHL SHR AND SWAP1 SSTORE CODESIZE PUSH2 0x314D JUMP JUMPDEST CALLDATALOAD PUSH1 0xFF DUP2 AND DUP2 SUB PUSH2 0x294 JUMPI SWAP1 JUMP JUMPDEST SWAP2 SWAP1 PUSH1 0x1 PUSH1 0x1 PUSH1 0x40 SHL SUB DUP3 GT PUSH2 0x8FF JUMPI PUSH2 0x31A9 DUP3 DUP5 PUSH2 0x310D JUMP JUMPDEST SWAP1 PUSH1 0x0 SWAP3 DUP4 MSTORE PUSH1 0x20 SWAP1 PUSH1 0x20 DUP5 KECCAK256 SWAP2 DUP2 PUSH1 0x5 SHR SWAP4 DUP6 JUMPDEST DUP6 DUP2 LT PUSH2 0x322E JUMPI POP PUSH1 0x1F NOT DUP4 AND SWAP1 SWAP3 SUB SWAP2 DUP3 PUSH2 0x31DD JUMPI JUMPDEST POP POP POP POP POP POP JUMP JUMPDEST SWAP2 SWAP1 DUP6 JUMPDEST DUP3 DUP2 LT PUSH2 0x31F9 JUMPI POP POP POP POP ADD SSTORE CODESIZE DUP1 DUP1 DUP1 DUP1 DUP1 PUSH2 0x31D5 JUMP JUMPDEST SWAP1 SWAP2 SWAP3 SWAP6 DUP3 PUSH2 0x3223 PUSH1 0x1 SWAP3 DUP5 PUSH2 0x320E DUP12 PUSH2 0x3181 JUMP JUMPDEST SWAP2 SWAP1 PUSH1 0xFF DUP1 SWAP2 PUSH1 0x3 SHL SWAP4 AND DUP4 SHL SWAP3 SHL NOT AND OR SWAP1 JUMP JUMPDEST SWAP8 ADD SWAP4 SWAP3 SWAP2 ADD PUSH2 0x31E1 JUMP JUMPDEST DUP7 DUP8 JUMPDEST DUP5 DUP1 DUP3 LT PUSH2 0x3247 JUMPI POP POP DUP6 DUP3 ADD SSTORE PUSH1 0x1 ADD PUSH2 0x31BE JUMP JUMPDEST PUSH2 0x3259 DUP6 SWAP4 DUP4 PUSH2 0x320E PUSH1 0x1 SWAP6 SWAP9 PUSH2 0x3181 JUMP JUMPDEST SWAP3 ADD SWAP4 ADD PUSH2 0x3231 JUMP JUMPDEST SWAP2 SWAP1 SWAP2 DUP1 SLOAD PUSH1 0x1 PUSH1 0x40 SHL DUP2 LT ISZERO PUSH2 0x8FF JUMPI PUSH2 0x3282 SWAP2 PUSH1 0x1 DUP3 ADD DUP2 SSTORE PUSH2 0x30A1 JUMP JUMPDEST SWAP3 SWAP1 SWAP3 PUSH2 0x3292 JUMPI PUSH2 0x2962 SWAP3 PUSH2 0x318F JUMP JUMPDEST PUSH4 0x4E487B71 PUSH1 0xE0 SHL PUSH1 0x0 MSTORE PUSH1 0x0 PUSH1 0x4 MSTORE PUSH1 0x24 PUSH1 0x0 REVERT JUMPDEST SWAP2 SWAP1 DUP1 DUP3 MSTORE PUSH1 0x20 DUP1 SWAP3 ADD SWAP3 SWAP2 PUSH1 0x0 DUP1 JUMPDEST DUP4 DUP3 LT PUSH2 0x32C7 JUMPI POP POP POP POP POP SWAP1 JUMP JUMPDEST SWAP1 SWAP2 SWAP3 SWAP4 SWAP5 DUP6 CALLDATALOAD PUSH1 0xFF DUP2 AND DUP1 SWAP2 SUB PUSH2 0x32EC JUMPI DUP2 MSTORE DUP4 ADD SWAP5 DUP4 ADD SWAP4 SWAP3 SWAP2 PUSH1 0x1 ADD SWAP1 PUSH2 0x32B8 JUMP JUMPDEST DUP3 DUP1 REVERT JUMPDEST SWAP6 SWAP5 SWAP4 PUSH2 0x331E SWAP3 PUSH1 0xFF PUSH1 0x60 SWAP6 SWAP4 AND DUP9 MSTORE PUSH1 0x1 DUP1 PUSH1 0xA0 SHL SUB AND PUSH1 0x20 DUP9 ADD MSTORE PUSH1 0x80 PUSH1 0x40 DUP9 ADD MSTORE PUSH1 0x80 DUP8 ADD SWAP2 PUSH2 0x32A8 JUMP JUMPDEST SWAP4 ADD MSTORE JUMP JUMPDEST SWAP2 SWAP1 DUP3 SUB SWAP2 DUP3 GT PUSH2 0x3330 JUMPI JUMP JUMPDEST PUSH4 0x4E487B71 PUSH1 0xE0 SHL PUSH1 0x0 MSTORE PUSH1 0x11 PUSH1 0x4 MSTORE PUSH1 0x24 PUSH1 0x0 REVERT JUMPDEST PUSH1 0xFF AND PUSH1 0xFF DUP2 EQ PUSH2 0x3330 JUMPI PUSH1 0x1 ADD SWAP1 JUMP JUMPDEST PUSH1 0x0 NOT DUP2 EQ PUSH2 0x3330 JUMPI PUSH1 0x1 ADD SWAP1 JUMP JUMPDEST DUP1 MLOAD DUP3 LT ISZERO PUSH2 0x30B9 JUMPI PUSH1 0x20 SWAP2 PUSH1 0x5 SHL ADD ADD SWAP1 JUMP JUMPDEST SWAP2 SWAP1 DUP3 ADD DUP1 SWAP3 GT PUSH2 0x3330 JUMPI JUMP JUMPDEST SWAP2 SWAP1 DUP2 LT ISZERO PUSH2 0x30B9 JUMPI PUSH1 0x5 SHL ADD SWAP1 JUMP JUMPDEST SWAP2 SWAP1 SWAP2 DUP1 SLOAD DUP4 LT ISZERO PUSH2 0x30B9 JUMPI PUSH1 0x0 MSTORE PUSH1 0x1F PUSH1 0x20 PUSH1 0x0 KECCAK256 DUP4 PUSH1 0x5 SHR ADD SWAP3 AND SWAP1 JUMP JUMPDEST SWAP1 PUSH1 0xA DUP2 LT ISZERO PUSH2 0x30B9 JUMPI PUSH1 0x5 SHL ADD SWAP1 JUMP JUMPDEST PUSH1 0xFF AND DUP1 ISZERO PUSH2 0x3330 JUMPI PUSH1 0x0 NOT ADD SWAP1 JUMP JUMPDEST PUSH1 0xF DUP2 ADD PUSH1 0x1 PUSH2 0x33E9 DUP3 SLOAD TIMESTAMP PUSH2 0x3323 JUMP JUMPDEST GT PUSH2 0x343C JUMPI PUSH1 0x0 SWAP1 SSTORE PUSH1 0xE ADD DUP1 SLOAD PUSH1 0x1 PUSH1 0x1 PUSH1 0xA0 SHL SUB NOT AND SWAP1 SSTORE PUSH1 0x1 SLOAD PUSH1 0x40 DUP1 MLOAD PUSH1 0xFF SWAP1 SWAP3 AND DUP3 MSTORE CALLER PUSH1 0x20 DUP4 ADD MSTORE PUSH32 0x308CC2B02FC1A88DA358C20CB336F6A217D9763F90465497D610DFABC5383ED5 SWAP2 LOG1 JUMP JUMPDEST POP PUSH1 0x10 DUP2 ADD DUP1 SLOAD PUSH1 0xFF NOT AND SWAP1 SSTORE PUSH1 0xE DUP2 ADD SLOAD PUSH1 0xC SWAP1 SWAP2 ADD SLOAD PUSH1 0x0 SWAP2 DUP3 SWAP2 DUP3 SWAP2 DUP3 SWAP2 SWAP1 PUSH1 0x1 PUSH1 0x1 PUSH1 0xA0 SHL SUB AND DUP3 DUP3 ISZERO PUSH2 0x3477 JUMPI JUMPDEST CALL ISZERO PUSH2 0x19B JUMPI JUMP JUMPDEST POP PUSH2 0x8FC PUSH2 0x346F JUMP JUMPDEST PUSH1 0x1 DUP1 PUSH1 0xA0 SHL SUB DUP1 DUP3 SLOAD AND SWAP2 DUP3 DUP3 PUSH1 0x1 DUP4 ADD SLOAD AND SWAP1 PUSH1 0x1 PUSH1 0x40 MLOAD PUSH1 0x20 DUP2 ADD SWAP1 TIMESTAMP DUP3 MSTORE PREVRANDAO PUSH1 0x40 DUP3 ADD MSTORE PUSH1 0x40 DUP2 MSTORE PUSH2 0x34B5 DUP2 PUSH2 0x27D2 JUMP JUMPDEST MLOAD SWAP1 KECCAK256 AND ISZERO PUSH2 0x34F7 JUMPI JUMPDEST POP SWAP1 PUSH1 0xD SWAP2 DUP4 PUSH1 0x7 DUP4 ADD SWAP6 AND SWAP4 PUSH1 0x1 PUSH1 0x1 PUSH1 0x60 SHL SUB PUSH1 0xA0 SHL SWAP6 DUP6 DUP8 DUP3 SLOAD AND OR SWAP1 SSTORE PUSH1 0x6 DUP4 ADD SWAP2 AND DUP6 DUP3 SLOAD AND OR SWAP1 SSTORE ADD SWAP2 DUP3 SLOAD AND OR SWAP1 SSTORE JUMP JUMPDEST SWAP1 SWAP4 POP PUSH1 0xD PUSH2 0x34BF JUMP JUMPDEST PUSH1 0x0 JUMPDEST DUP4 DUP2 LT PUSH2 0x3514 JUMPI POP POP PUSH1 0x0 SWAP2 ADD MSTORE JUMP JUMPDEST DUP2 DUP2 ADD MLOAD DUP4 DUP3 ADD MSTORE PUSH1 0x20 ADD PUSH2 0x3504 JUMP JUMPDEST SWAP1 PUSH1 0xFF DUP1 SWAP2 AND SWAP2 AND ADD SWAP1 PUSH1 0xFF DUP3 GT PUSH2 0x3330 JUMPI JUMP JUMPDEST PUSH1 0x1 PUSH1 0x1 PUSH1 0x40 SHL SUB DUP2 GT PUSH2 0x8FF JUMPI PUSH1 0x1F ADD PUSH1 0x1F NOT AND PUSH1 0x20 ADD SWAP1 JUMP INVALID BASEFEE ADDRESS PREVRANDAO 0xDE 0xEE 0xEE NOT ORIGIN PUSH24 0x9C69368BBE4DCEABA768D41D041CCE9DB42AB775469F86A2 PUSH5 0x6970667358 0x22 SLT KECCAK256 0xBA 0xC3 SWAP8 0xB8 SWAP1 0xEE CALLCODE PUSH23 0xC42B7C23DC76CF35958E7B75B74787FC10DBEF4175EF0B BLOCKHASH PUSH5 0x736F6C6343 STOP ADDMOD XOR STOP CALLER "
        },
        "methodIdentifiers": {
          "accuseAfk(uint8)": "9221b6ed",
          "accuseCheating(uint8,uint8)": "aaabca8e",
          "createGame(bool,address)": "4190ef71",
          "finishGame(uint8)": "ead720cb",
          "games(uint256)": "117a5b90",
          "joinGame(uint8)": "d0ae92fb",
          "joinGameRandom()": "44f1c6b5",
          "revealCode(uint8,uint8[])": "a4a678b8",
          "submitCode(uint8,bytes32)": "9b125419",
          "submitFeedback(uint8,uint8[])": "5fa3f435",
          "submitGuess(uint8,uint8[])": "11e967da",
          "verifyAfk(uint8)": "38b4e403"
        }
      }
    }
  }
}